:060000008A150A16002813
:10000800FF00030E8301EA000A08E9008A0170086C
:10001800A0000B1D1128AA270B112008F000690861
:0C0028008A006A0E8300FF0E7F0E0900A4
:1000340083120313FB01FA01F9018030F800F10C7B
:10004400F00C031C2E287408F90775080318750FA3
:10005400FA070318FB0A0310F01F36287408FA077E
:1000640075080318750FFB07FB0CFA0CF90CF80C58
:10007400031C21287B08F3007A08F2007908F100B8
:060084007808F0000800FE
:10008A00831603131208013EF000F1010318F10A66
:10009A005408F400F5011A200630F2007008F40042
:1000AA007108F500720803195F28F50CF40CF513B2
:1000BA00FF3E58280430F1007408F0007108031953
:1000CA006A28F00D7010FF3E642883120313303043
:1000DA007005F3007408F0007508F100F10CF00CDB
:1000EA00F113F10CF00CF113700895000F3097051D
:0600FA00730897040800E2
:10010000243083120313FD00FD0B84280000080037
:10011000831603131208013EF000F1010318F10ADF
:100120005408F400F5011A200630F2007008F400BB
:100130007108F50072080319A228F50CF40CF513E8
:10014000FF3E9B280430F1007408F0007108031989
:10015000AD28F00D7010FF3EA72883120313303036
:100160007005F3007408F0007508F100F10CF00C54
:10017000F113F10CF00CF11370089B000F309D058A
:0601800073089D04080055
:100186003C30831203139F05C0309F006F08F000B8
:10019600F00D7010F00D701070089F0483169F17F5
:1001A60083121F1480209F149F1CDB280000D72871
:1001B6001F101E08F100F00183161E08F00400301F
:0401C600F104080038
:0E01CA0083120313CF01D001AB01AC0108007A
:1001D800831203138715071707168712BE30831675
:0E01E800D4004520BE308316D40088200800C5
:1001F600831203138715071707128716BE30831657
:0E020600D4004520BE308316D40088200800A6
:0C021400000000000000000000000800D6
:100220008312031387150712871207170330A500DF
:060230000030A6000800EA
:1002360083120313EB01EC01EB0A0319EC0A0A2102
:10024600061F262938298030173AF00080306C06C0
:100256007002031D30296B08703C03183729FF30E4
:10026600F000FF30F10008001F29EB01EC01EB0A5A
:100276000319EC0A0A21061B4329F001F1010800C3
:100286008030173AF00080306C067002031D4D294D
:100296006B08703C03185429FF30F000FF30F10062
:0602A60008003A290800DF
:1002AC008312031387150712871607130230A50054
:0602BC000030A60008005E
:0E02C20083120313871507170716871208000B
:1002D00083160313D001D101D201D301C830D40059
:1002E0004520C8308316D40088208030F00080304C
:1002F0002C067002031D7E292B08963C031C8C29BA
:100300008030F000803050067002031D89294F08AC
:10031000963C031C8C298D29E520102180302C0669
:10032000F000803050067002031D98294F082B0200
:10033000031CBB294F082B02F1005008031C013E8F
:100340002C02F20080307206F00080307002031D33
:10035000AB2903307102031CBA29FB2080302C0624
:10036000F000803050067002031DB8294F082B02A0
:100370000318AD29DB292B084F02F1002C08031CC0
:10038000013E5002F20080307206F00080307002B0
:10039000031DCC2903307102031CDB29EC208030C3
:1003A0005006F00080302C067002031DD9292B085E
:0803B0004F020318CE290800DA
:0E03B800831203138715071707128716080014
:0E03C600831203138715071707168716080002
:1003D40083120313AF01B001D501D601EF01C3208D
:1003E400710883123202031DF929700831020318BF
:1003F400072A3130DB0001308316B2000030B3002D
:100404008312D50A0319D60A0C2A3030DB0083166E
:10041400B201B30101308312EF00C32071088312CB
:100424003202031D172A700831020318252A3130BD
:10043400DC0001308316B4000030B5008312D50A05
:100444000319D60A2A2A3030DC008316B401B50118
:1004540002308312EF00C320710883123202031D9D
:10046400352A700831020318432A3130DD00013087
:100474008316B6000030B7008312D50A0319D60AD2
:10048400482A3030DD008316B601B70103308312E9
:10049400EF00C320710883123202031D532A70082F
:1004A40031020318612A3130DE0001308316B800AE
:1004B4000030B9008312D50A0319D60A662A3030EF
:1004C400DE008316B801B90104308312EF00C320A3
:1004D400710883123202031D712A70083102031855
:1004E4007F2A3130DF0001308316BA000030BB00B0
:1004F4008312D50A0319D60A842A3030DF00831602
:10050400BA01BB0105308312EF00C32071088312C6
:100514002A02031D8F2A7008290203189D2A3130EC
:10052400E00001308316A0000030A1008312AF0A5E
:100534000319B00AA22A3030E0008316A001A101F9
:1005440006308312EF00C320710883122A02031DB0
:10055400AD2A700829020318BB2A3130E1000130AA
:100564008316A2000030A3008312AF0A0319B00A55
:10057400C02A3030E1008316A201A30107308312A0
:10058400EF00C320710883122A02031DCB2A7008CE
:1005940029020318D92A3130E20001308316A4005D
:1005A4000030A5008312AF0A0319B00ADE2A3030E6
:1005B400E2008316A401A50108308312EF00C320D2
:1005C400710883122A02031DE92A700829020318FC
:1005D400F72A3130E30001308316A6000030A7006B
:1005E4008312AF0A0319B00AFC2A3030E3008316E1
:1005F400A601A70109308312EF00C32071088312FA
:100604002A02031D072B700829020318152B313009
:10061400E40001308316A8000030A9008312AF0A59
:100624000319B00A1A2B3030E4008316A801A9017B
:100634000A308312EF00C320710883122A02031DBB
:10064400252B700829020318332B3130E5000130C3
:100654008316AA000030AB008312AF0A0319B00A54
:10066400382B3030E5008316AA01AB010B3083121E
:10067400EF00C320710883122A02031D432B700864
:1006840029020318512B3130E60001308316AC00E7
:100694000030AD008312AF0A0319B00A562B303074
:1006A400E6008316AC01AD010C308312EF00C320C9
:1006B400710883122A02031D612B70082902031892
:1006C4006F2B3130E70001308316AE000030AF00ED
:1006D4008312AF0A0319B00A742B3030E700831673
:1006E400AE01AF010D308312EF00C32071088312F5
:1006F4002A02031D7F2B7008290203188D2B313029
:10070400E80001308316B0000030B1008312AF0A54
:100714000319B00A922B3030E8008316B001B101FE
:020724000800CB
:1007260083120313D901DA01D90A0319DA0A0A2155
:10073600081F9E2BB02B8030173AF00080305A06E7
:100746007002031DA82B5908703C0318AF2BFF300D
:10075600F000FF30F1000800972BD901DA01D90A21
:100766000319DA0A0A21081BBB2BF001F101080064
:100776008030173AF00080305A067002031DC52BF0
:100786005908703C0318CC2BFF30F000FF30F10005
:060796000800B22B080070
:10079C0083120313D701D801D70A0319D80A0A21E7
:1007AC00871FD92BEB2B8030173AF000803058067E
:1007BC007002031DE32B5708703C0318EA2BFF3023
:1007CC00F000FF30F1000800D22BD701D801D70A76
:1007DC000319D80A0A21871BF62BF001F101080036
:1007EC008030173AF000803058067002031D002C40
:1007FC005708703C0318072CFF30F000FF30F10055
:06080C000800ED2B0800BE
:100812008312031387110716871207170130A500E9
:060822000030A6000800F2
:1008280083120313871507170716871247088316BD
:0E083800D400452047088316D400882008000D
:10084600EA21831603132208F0002308F100F00DB5
:10085600F10D701070082007F30021080318013EFF
:100866007107F4002408F0002508F100F00DF10DE1
:100876007010F00DF10D70107008F3077108031871
:10088600013EF4070330F2002608F0002708F100C5
:1008960072080319532CF00DF10D7010FF3E4C2C0D
:1008A6007008F30771080318013EF4070430F200DC
:1008B6002808F0002908F10072080319672CF00DCA
:1008C600F10D7010FF3E602C7008F30771080318D5
:1008D600013EF4070530F2002A08F0002B08F1006B
:1008E600720803197B2CF00DF10D7010FF3E742C6D
:1008F6007008F30771080318013EF4070630F2008A
:100906002C08F0002D08F100720803198F2CF00D49
:10091600F10D7010FF3E882C7008F307710803185C
:10092600013EF4070730F2002E08F0002F08F10010
:1009360072080319A32CF00DF10D7010FF3E9C2CCC
:100946007008F30771080318013EF4073008F10038
:10095600F0017308F00774080318013EF1077008E8
:0A0966008312A3007108A40008002A
:10097000831203138715071707128712450883167A
:0E098000D400452047088316D40088200800C4
:10098E00831603132208F0002308F100F00DF10D79
:10099E00701070082007F30021080318013E71073C
:1009AE00F4002408F0002508F100F00DF10D701090
:1009BE00F00DF10D70107008F30771080318013E69
:1009CE00F4070330F2002608F0002708F100720841
:1009DE000319F62CF00DF10D7010FF3EEF2C700880
:1009EE00F30771080318013EF4070430F2002808DB
:1009FE00F0002908F100720803190A2DF00DF10D0F
:100A0E007010FF3E032D7008F30771080318013EA6
:100A1E00F4070530F2002A08F0002B08F1007208E6
:100A2E0003191E2DF00DF10D7010FF3E172D7008DD
:100A3E00F30771080318013EF4070630F2002C0884
:100A4E00F0002D08F10072080319322DF00DF10D92
:100A5E007010FF3E2B2D7008F30771080318013E2E
:100A6E00F4070730F2002E08F0002F08F10072088C
:100A7E000319462DF00DF10D7010FF3E3F2D70083D
:100A8E00F30771080318013EF4073008F100F00176
:0E0A9E007308F00774080318013EF107080002
:100AAC0083120313881D5D2D081E5D2DBB2D081EA2
:100ABC008C2D88198C2DB9308316D4004520B93073
:100ACC008316D40088205621881C6E2DE321BB2D63
:100ADC000330FB008A30FC005530FD00FD0B742DFB
:100AEC00FC0B742DFB0B742D00000000E321023075
:100AFC00FB004530FC00A930FD00FD0B832DFC0BE9
:100B0C00832DFB0B832D00000000BA2D081ABA2D83
:100B1C00881DBA2DB9308316D4004520B930831600
:100B2C00D40088200924081C9D2DE321BB2D033003
:100B3C00FB008A30FC005530FD00FD0BA32DFC0B97
:100B4C00A32DFB0BA32D00000000E3210230FB00C2
:100B5C004530FC00A930FD00FD0BB22DFC0BB22D75
:100B6C00FB0BB22D00000000562DE3210630FB00DC
:100B7C001330FC00AD30FD00FD0BC22DFC0BC22D63
:0A0B8C00FB0BC22D00000000080062
:100B96008312031387150713071287164508831652
:0E0BA600D400452045088316D400882008009E
:0E0BB4008316031345088A00440882000800D7
:100BC2008312031386131330FD00FD0BE62D000084
:100BD200000086171330FD00FD0BED2D0000000014
:100BE200861393237008ED007108EE008230FC003A
:100BF200DD30FD00FD0BFB2DFC0BFB2D000000008A
:100C02006D08F0006E08F100F10CF00CF113711B8D
:040C1200F1170800CE
:100C160083120313871507128712071733088316E3
:0E0C2600D400452033088316D400882008002F
:100C3400EA21831603133408F0003508F100F00D9F
:100C4400F10D701070083207F30033080318013EE9
:100C54007107F4003608F0003708F100F00DF10DCB
:100C64007010F00DF10D70107008F307710803187F
:100C7400013EF4070330F2003808F0003908F100AF
:100C8400720803194A2EF00DF10D7010FF3E432E29
:100C94007008F30771080318013EF4070430F200EA
:100CA4003A08F0003B08F100720803195E2EF00DBB
:100CB400F10D7010FF3E572E7308F00774080318E7
:100CC400013EF10770088312A3007108A400080014
:100CD4008312031387110716871607130430A50020
:060CE4000030A60008002C
:100CEA00EA210030831203133006031D7E2E0030E2
:100CFA002F06031D842E6821F001F10108008316D6
:100D0A0000302906031D8B2E00302806031DE22E13
:100D1A0000302106031D932E013020060319AE2E42
:100D2A0000302306031D9B2E013022060319AE2E26
:100D3A0000302506031DA32E013024060319AE2E0A
:100D4A0000302706031DAB2E013026060319AE2EEE
:100D5A00C72E831600302906031DB52E003028063B
:100D6A00031DC62EEA210030831203133006031D29
:100D7A00C02E00302F06031DC42E6821C52E562111
:100D8A00AE2EDF2E003083162906031DCE2E00302C
:100D9A002806031DDF2EEA210030831203133006D2
:100DAA00031DD92E00302F06031DDD2E6821DE2EED
:100DBA000924C72EF001F10108000130F0000030CB
:040DCA00F10008002C
:100DCE008312031386131330FD00FD0BEC2E00006F
:100DDE00000086171330FD00FD0BF32E00000000FF
:100DEE0086131B217008ED007108EE000230FB0027
:100DFE004530FC00A930FD00FD0B032FFC0B032F2B
:100E0E00FB0B032F000000006D08F0006E08F100D0
:0C0E1E00F10CF00CF113711BF11708002F
:100E2A0083120313871107170716871245088316BB
:0E0E3A00D400452045088316D4008820080007
:100E48008312031387150717071287164708831697
:0E0E5800D400452047088316D40088200800E7
:100E66008312031306131330FD00FD0B382F000009
:100E7600000006171330FD00FD0B3F2F0000000099
:100E86000613CE237008ED007108EE008230FC00D8
:100E9600DD30FD00FD0B4D2FFC0B4D2F000000003B
:100EA6006D08F0006E08F100F10CF00CF113711BE7
:040EB600F117080028
:100EBA008312031387150717071287124708831629
:0E0ECA00D400452045088316D4008820080077
:100ED800831603138710831212150C309D04080023
:100EE800E63083120313B300B401C830C500C6014D
:0E0EF800E130C700C801CD30C900CA010800B2
:100F0600831603130711831212150C309704080079
:0C0F1600831203139B011D129D120800A2
:0C0F2200831203139501171297120800A8
:0E0F2E008530831603138100A0308B0008006D
:100F3C00DA258A110A128000840AC40A0319C50A28
:080F4C00F003031D9E2F0800B5
:100F540083120313071CB02FC301C4010718D92F30
:100F640000304406031DB82F00304306031DD92F5B
:100F74000130C3000030C400CF0A0319D00A003086
:100F84002606031DC72F01302506031DCD2FA70AF2
:100F94000319A80AD92F00302606031DD32F0230C7
:100FA4002506031DD92F0130A702031CA803051E23
:100FB400DD2FD301D401051AEE2F00305406031D92
:100FC400E52F00305306031DEE2F0130D30000300F
:0A0FD400D400AB0A0319AC0A0800B0
:100FE00021308400363083120313F000B9308316A9
:0A0FF000C4000E30C5009E27080063
:101000008A11EA218A150030831603132506031D71
:101010000B2800302406031D312800302706031D4D
:10102000132801302606031D312800302906031D30
:101030001B2801302806031D312800302B06031D14
:10104000232801302A06031D312800302D06031DF8
:101050002B2800302C06031D31288A1110218A15F7
:10106000AA2A003083162506031D382800302406DE
:10107000031D5E2800302706031D40280030260689
:10108000031D5E2800302906031D4828013028066C
:10109000031D5E2800302B06031D502801302A0650
:1010A000031D5E2800302D06031D582801302C0634
:1010B000031D5E288A1109248A15AA2A0030831686
:1010C0002506031D652800302406031D8B280030EB
:1010D0002706031D6D2801302606031D8B280030CE
:1010E0002906031D752801302806031D8B280030B2
:1010F0002B06031D7D2801302A06031D8B28003096
:101100002D06031D852801302C06031D8B288A110E
:1011100061218A15AA2A003083162506031D92280C
:1011200000302406031DB82800302706031D9A2826
:1011300000302606031DB82800302906031DA2280A
:1011400001302806031DB82800302B06031DAA28ED
:1011500001302A06031DB82800302D06031DB228D1
:1011600000302C06031DB8288A1110218A15AA2ADE
:10117000003083162506031DBF2800302406031DFA
:10118000E52800302706031DC72800302606031D6A
:10119000E52800302906031DCF2800302806031D4E
:1011A000E52800302B06031DD72801302A06031D31
:1011B000E52800302D06031DDF2801302C06031D15
:1011C000E5288A1109248A15AA2A003083162506E3
:1011D000031DEC2800302406031D122900302706C9
:1011E000031DF42800302606031D122900302906AD
:1011F000031DFC2800302806031D122900302B0691
:10120000031D042900302A06031D122900302D0673
:10121000031D0C2901302C06031D12298A110924F3
:101220008A15AA2A003083162506031D19290030C5
:101230002406031D3F2900302706031D2129013004
:101240002606031D3F2900302906031D29290130E8
:101250002806031D3F2900302B06031D31290130CC
:101260002A06031D3F2900302D06031D39290130B0
:101270002C06031D3F298A1110218A15AA2A003045
:1012800083162506031D462901302406031D6C29FB
:1012900000302706031D4E2901302606031D6C2948
:1012A00000302906031D562901302806031D6C292C
:1012B00000302B06031D5E2900302A06031D6C2911
:1012C00000302D06031D662900302C06031D6C29F5
:1012D0008A1156218A15AA2A003083162506031D75
:1012E000732901302406031D992900302706031DA8
:1012F0007B2901302606031D992900302906031D8C
:10130000832901302806031D992900302B06031D6F
:101310008B2901302A06031D992900302D06031D53
:10132000932900302C06031D99298A11DC218A1586
:10133000AA2A003083162506031DA02900302406A2
:10134000031DC62900302706031DA82901302606E3
:10135000031DC62900302906031DB02901302806C7
:10136000031DC62900302B06031DB82900302A06AC
:10137000031DC62900302D06031DC02900302C0690
:10138000031DC6298A1110218A15AA2A0030831646
:101390002506031DCD2901302406031DF329003045
:1013A0002706031DD52901302606031DF329003029
:1013B0002906031DDD2900302806031DF32900300E
:1013C0002B06031DE52900302A06031DF3290030F2
:1013D0002D06031DED2900302C06031DF3298A116B
:1013E00056218A15AA2A003083162506031DFA29DC
:1013F00001302406031D202A00302706031D022A7F
:1014000000302606031D202A00302906031D0A2A63
:1014100000302806031D202A00302B06031D122A47
:1014200000302A06031D202A00302D06031D1A2A2B
:1014300000302C06031D202A8A1156218A15AA2A5B
:10144000003083162506031D272A01302406031DBC
:101450004D2A00302706031D2F2A01302606031DC2
:101460004D2A00302906031D372A01302806031DA6
:101470004D2A00302B06031D3F2A01302A06031D8A
:101480004D2A00302D06031D472A00302C06031D6F
:101490004D2A8A1110218A15AA2A003083162506A2
:1014A000031D542A00302406031D7A2A0030270623
:1014B000031D5C2A00302606031D7A2A0030290607
:1014C000031D642A00302806031D7A2A00302B06EB
:1014D000031D6C2A00302A06031D7A2A00302D06CF
:1014E000031D742A00302C06031D7A2A8A1110214C
:1014F0008A15AA2A003083162506031D812A013089
:101500002406031DA72A00302706031D892A01305F
:101510002606031DA72A00302906031D912A013043
:101520002806031DA72A00302B06031D992A013027
:101530002A06031DA72A00302D06031DA12A01300B
:101540002C06031DA72A8A1161218A15AA2A8A114D
:0615500068218A15080065
:101556008A11EA218A150030831603133306031D08
:10156600B62A00303206031DDC2A00303506031D7C
:10157600BE2A01303406031DDC2A00303706031D5F
:10158600C62A01303606031DDC2A00303906031D43
:10159600CE2A01303806031DDC2A00303B06031D27
:1015A600D62A00303A06031DDC2A8A1110218A1534
:1015B600552D003083163306031DE32A003032060C
:1015C600031D092B00303506031DEB2A00303406B7
:1015D600031D092B00303706031DF32A013036069A
:1015E600031D092B00303906031DFB2A013038067E
:1015F600031D092B00303B06031D032B01303A0661
:10160600031D092B8A1109248A15552D00308316CE
:101616003306031D102B00303206031D362B003017
:101626003506031D182B01303406031D362B0030FA
:101636003706031D202B01303606031D362B0030DE
:101646003906031D282B01303806031D362B0030C2
:101656003B06031D302B01303A06031D362B8A113B
:1016660061218A15552D003083163306031D3D2B47
:1016760000303206031D632B00303506031D452B53
:1016860000303406031D632B00303706031D4D2B37
:1016960001303606031D632B00303906031D552B1A
:1016A60001303806031D632B00303B06031D5D2BFE
:1016B60000303A06031D632B8A1110218A15552D19
:1016C600003083163306031D6A2B00303206031DD5
:1016D600902B00303506031D722B00303406031D97
:1016E600902B00303706031D7A2B00303606031D7B
:1016F600902B00303906031D822B01303806031D5E
:10170600902B00303B06031D8A2B01303A06031D41
:10171600902B8A1109248A15552D0030831633061D
:10172600031D972B00303206031DBD2B00303506F6
:10173600031D9F2B00303406031DBD2B00303706DA
:10174600031DA72B00303606031DBD2B00303906BE
:10175600031DAF2B00303806031DBD2B00303B06A2
:10176600031DB72B01303A06031DBD2B8A11092430
:101776008A15552D003083163306031DC42B003001
:101786003206031DEA2B00303506031DCC2B013033
:101796003406031DEA2B00303706031DD42B013017
:1017A6003606031DEA2B00303906031DDC2B0130FB
:1017B6003806031DEA2B00303B06031DE42B0130DF
:1017C6003A06031DEA2B8A1110218A15552D003081
:1017D60083163306031DF12B01303206031D172C29
:1017E60000303506031DF92B01303406031D172C76
:1017F60000303706031D012C01303606031D172C59
:1018060000303906031D092C00303806031D172C3D
:1018160000303B06031D112C00303A06031D172C21
:101826008A1156218A15552D003083163306031D5D
:101836001E2C01303206031D442C00303506031DD4
:10184600262C01303406031D442C00303706031DB8
:101856002E2C01303606031D442C00303906031D9C
:10186600362C01303806031D442C00303B06031D80
:101876003E2C00303A06031D442C8A11DC218A15C1
:10188600552D003083163306031D4B2C00303206CF
:10189600031D712C00303506031D532C0130340610
:1018A600031D712C00303706031D5B2C01303606F4
:1018B600031D712C00303906031D632C00303806D9
:1018C600031D712C00303B06031D6B2C00303A06BD
:1018D600031D712C8A1110218A15552D003083168F
:1018E6003306031D782C01303206031D9E2C003072
:1018F6003506031D802C01303406031D9E2C003056
:101906003706031D882C00303606031D9E2C00303A
:101916003906031D902C00303806031D9E2C00301E
:101926003B06031D982C00303A06031D9E2C8A1197
:1019360056218A15552D003083163306031DA52C16
:1019460001303206031DCB2C00303506031DAD2CAD
:1019560000303406031DCB2C00303706031DB52C92
:1019660000303606031DCB2C00303906031DBD2C76
:1019760000303806031DCB2C00303B06031DC52C5A
:1019860000303A06031DCB2C8A1156218A15552D97
:10199600003083163306031DD22C01303206031D98
:1019A600F82C00303506031DDA2C01303406031DF1
:1019B600F82C00303706031DE22C01303606031DD5
:1019C600F82C00303906031DEA2C01303806031DB9
:1019D600F82C00303B06031DF22C00303A06031D9E
:1019E600F82C8A1110218A15552D003083163306DE
:1019F600031DFF2C00303206031D252D0030350651
:101A0600031D072D00303406031D252D0030370633
:101A1600031D0F2D00303606031D252D0030390617
:101A2600031D172D00303806031D252D00303B06FB
:101A3600031D1F2D00303A06031D252D8A11102186
:101A46008A15552D003083163306031D2C2D0130C3
:101A56003206031D522D00303506031D342D01308C
:101A66003406031D522D00303706031D3C2D013070
:101A76003606031D522D00303906031D442D013054
:101A86003806031D522D00303B06031D4C2D013038
:101A96003A06031D522D8A1161218A15552D8A1188
:061AA60010218A15080062
:101AAC000030831203134C06031D5E2D00304B06D1
:101ABC00031DD82DC3308316D4008A1145208A15F6
:101ACC00BE308316D4008A1188208A158A11102101
:101ADC008A158A11E1258A158A1133278A15081C63
:101AEC007A2D881C7A2DAE2DAF308316D4008A1136
:101AFC0045208A15AF308316D4008A1188208A15A8
:101B0C00081C942D081C912D8A1156218A15881CAD
:101B1C00902D912D882D8A11E3218A15881CA22DD8
:101B2C00881C9F2D8A1109248A15081C9E2D9F2D17
:101B3C00962D8A11E3218A15B9308316D4008A11A7
:101B4C0045208A15B9308316D4008A1188208A154D
:101B5C0080305A06F00080307002031DB72DFA3029
:101B6C005902031CC52D80305806F00080307002DD
:101B7C00031DC22DFA305702031CC52DD72D8A1117
:101B8C00E3218A1504308316CE000030CF008A1171
:101B9C0056258A150130CB000030CC008A11E52087
:101BAC008A15B82E00304C06031DDE2D0B304B066B
:101BBC00031DE12DB82E00304C06031DE72D01301E
:101BCC004B06031DB82E8A11E1258A158A1133277D
:101BDC008A1500304E06031DF52D00304D06031DF1
:101BEC005B2E8A1109248A154F082B07F3002C0849
:101BFC000318013E5007F4007308F1007408F2005A
:101C0C00F20CF10CF213721BF2178030F0008030E2
:101C1C0072067002031D142E7108193C03182A2E2B
:101C2C00CB01CC018A11E3218A150130CD000030A3
:101C3C00CE0004308316CE000030CF008A1156251A
:101C4C008A158A11E5208A15081C352ECB01CC018A
:101C5C008A11E3218A150130CD000030CE0080308E
:101C6C00013AF00080305A067002031D3F2E5908CD
:101C7C002C3C03185A2E8030013AF0008030580664
:101C8C007002031D4B2E57082C3C03185A2E8A1138
:101C9C00E3218A150230CB000030CC000130CD009E
:101CAC000030CE00CB01CC01B82E8A1156218A15FA
:101CBC004F082B07F3002C080318013E5007F400C3
:101CCC007308F1007408F200F20CF10CF213721BA1
:101CDC00F2178030F000803072067002031D782EEF
:101CEC007108193C03188C2ECB01CC018A11E3210D
:101CFC008A15CD01CE0104308316CE000030CF0002
:101D0C008A1156258A158A11E5208A15881C952E6C
:101D1C00CB01CC018A11E3218A15CD01CE01803093
:101D2C00013AF00080305A067002031D9F2E5908AC
:101D3C002C3C0318B82E8030013AF0008030580645
:101D4C007002031DAB2E57082C3C0318B82E8A11B9
:101D5C00E3218A150230CB000030CC00CD01CE013E
:061D6C00CB01CC010800D0
:1020000083160313C601C701BE30D4000A1245204F
:102010000A16BE308316D4000A1288200A16003031
:102020002206031D152800302106031D1F2B0A124E
:10203000EA210A160A12C7240A1670088312A100A0
:102040007108A2000A12E5200A160A12E7260A16EB
:102050000A12E1250A1683128030F00080302C0627
:102060007002031D35282B08143C031C6328003024
:1020700083164706031D3E2800304606031D6328CD
:102080000A12EA210A160A12C7240A1670088312D5
:10209000A1007108A2000A12E7260A160A12E12519
:1020A0000A160A1215270A1600302206031D5A289E
:1020B000003021060319622801308316C600003063
:1020C000C70063282B28831600304706031D6A28A3
:1020D00000304606031D7C280A12E3210A161A3036
:1020E000FB005E30FC006E30FD00FD0B7528FC0B24
:1020F0007528FB0B752800000A12E5200A168312CA
:102100008030F00080302C067002031D89282B08D7
:102110003C3C031CD228003083164706031D92283E
:1021200000304606031DD2280A12EA210A160A12B6
:10213000C7240A1670088312A1007108A2000A12AF
:10214000E7260A160A12E1250A160A1268210A165B
:1021500000302206031DAE28003021060319B628E0
:1021600001308316C6000030C700D22880308312A9
:102170006C06F00080307002031DC028C8306B026E
:102180000318D12880305A06F00080307002031DF9
:10219000CB28C83059020318D1288316C601C701BD
:1021A000D2287F28831600304706031DD928003027
:1021B0004606031DEB280A12E3210A161A30FB001B
:1021C0005E30FC006E30FD00FD0BE428FC0BE428C3
:1021D000FB0BE42800000A12E5200A168312803067
:1021E000F00080302C067002031DF8282B080F3CED
:1021F000031C2629003083164706031D01290030E1
:102200004606031D26290A12EA210A160A12C724C5
:102210000A1670088312A1007108A2000A12E726AC
:102220000A160A12E1250A160A12CB250A160030F0
:102230002206031D1D29003021060319252901301E
:102240008316C6000030C7002629EE28831600300A
:102250004706031D2D2900304606031D3F290A129B
:10226000E3210A161A30FB005E30FC006E30FD00E0
:10227000FD0B3829FC0B3829FB0B382900000A120A
:10228000E5200A1683128030F00080302C067002A0
:10229000031D4C292B08103C031C7A29003083169F
:1022A0004706031D552900304606031D7A290A12E8
:1022B000EA210A160A12C7240A1670088312A1001E
:1022C0007108A2000A12E7260A160A12E1250A1668
:1022D0000A1268210A1600302206031D71290030F7
:1022E00021060319792901308316C6000030C70082
:1022F0007A294229831600304706031D81290030C0
:102300004606031D93290A12E3210A161A30FB0020
:102310005E30FC006E30FD00FD0B8C29FC0B8C291F
:10232000FB0B8C2900000A12E5200A16831280306C
:10233000F00080302C067002031DA0292B080F3CF2
:10234000031CCE29003083164706031DA92900303F
:102350004606031DCE290A12EA210A160A12C724CC
:102360000A1670088312A1007108A2000A12E7265B
:102370000A160A12E1250A160A12CB250A1600309F
:102380002206031DC529003021060319CD2901307D
:102390008316C6000030C700CE2996298316003068
:1023A0004706031DD52900304606031DE7290A12FA
:1023B000E3210A161A30FB005E30FC006E30FD008F
:1023C000FD0BE029FC0BE029FB0BE02900000A12C1
:1023D000E5200A1683128030F00080302C0670024F
:1023E000031DF4292B083C3C031C3D2A00308316B6
:1023F0004706031DFD2900304606031D3D2A0A122B
:10240000EA210A160A12C7240A1670088312A100CC
:102410007108A2000A12E7260A160A12E1250A1616
:102420000A1268210A1600302206031D192A0030FC
:1024300021060319212A01308316C6000030C70087
:102440003D2A803083126C06F00080307002031D3C
:102450002B2AC8306B0203183C2A80305A06F00041
:1024600080307002031D362AC830590203183C2AF6
:102470008316C601C7013D2AEA29831600304706A4
:10248000031D442A00304606031D562A0A12E32182
:102490000A161A30FB005E30FC006E30FD00FD0BAA
:1024A0004F2AFC0B4F2AFB0B4F2A00000A12E52093
:1024B0000A1683128030F00080302C067002031D53
:1024C000632A2B08143C031C912A0030831647060C
:1024D000031D6C2A00304606031D912A0A12EA21C8
:1024E0000A160A12C7240A1670088312A10071087E
:1024F000A2000A12E7260A160A12E1250A160A1293
:1025000015270A1600302206031D882A00302106EE
:102510000319902A01308316C6000030C700912AA3
:10252000592A831600304706031D982A00304606B4
:10253000031DAA2A0A12E3210A161A30FB005E3094
:10254000FC006E30FD00FD0BA32AFC0BA32AFB0B45
:10255000A32A00000A12E5200A1683128030F00038
:1025600080302C067002031DB72A2B08103C031C78
:10257000E52A003083164706031DC02A00304606B0
:10258000031DE52A0A12EA210A160A12C7240A16AE
:1025900070088312A1007108A2000A12E7260A1629
:1025A0000A12E1250A160A1268210A1600302206CC
:1025B000031DDC2A003021060319E42A01308316AA
:1025C000C6000030C700E52AAD2A83160030470652
:1025D000031DEC2A00304606031DFE2A0A12E321E1
:1025E0000A161A30FB005E30FC006E30FD00FD0B59
:1025F000F72AFC0BF72AFB0BF72A000000308316A2
:102600004706031D052B01304606031D1C2B0A122D
:10261000E3210A161A30FB005E30FC006E30FD002C
:10262000FD0B102BFC0B102BFB0B102B00000130B3
:10263000F0000030F1000800F001F101080008008E
:1026400083160313C601C701C801C901CA01CB0122
:10265000CC01CD010A12EA210A160A12C7240A1671
:1026600070088312A1007108A20000307106031DDA
:102670003B2B3830700603194E2B00302206031D09
:10268000432B3030210603194E2B00302206031D48
:102690004B2B1830210603194E2B522B0A120B26F6
:1026A0000A16582D00302206031D582B1C30210617
:1026B0000319632B00302206031D602B0C3021060A
:1026C0000319632B672B0A12B8240A16582D003001
:1026D0002206031D6D2B703021060319782B003064
:1026E0002206031D752B603021060319782B7C2BE5
:1026F0000A125D270A16582D00302206031D822B70
:102700000E30210603198D2B00302206031D8A2B63
:102710000630210603198D2B952B0A1224270A1641
:102720000330C1000030C200582D00302206031DC6
:102730009B2BE03021060319A62B00302206031D37
:10274000A32BC03021060319A62BAE2B0A1214248A
:102750000A160430C1000030C200582D0030220695
:10276000031DB42B073021060319C72B00302206A6
:10277000031DBC2B033021060319C72B0030220692
:10278000031DC42B013021060319C72BCF2B0A12BE
:10279000CB250A160530C1000030C200582D220892
:1027A000013A031DD52BC03021060319E82B22085E
:1027B000013A031DDD2B803021060319E82B220886
:1027C000013A031DE52B003021060319E82BF02BFD
:1027D0000A1215270A160630C1000030C200582D13
:1027E000003083162106031DF72B01302006031944
:1027F0000A2C00302306031DFF2B0130220603198B
:102800000A2C00302506031D072C0130240603196D
:102810000A2C2B2C00302D06031D102C01302C0609
:102820000319232C00302F06031D182C01302E060F
:102830000319232C00303106031D202C01303006F3
:102840000319232C2B2C0A1214240A160430C1005D
:102850000030C200582D003083163106031D322C83
:102860000130300603193D2C00302F06031D3A2C91
:1028700001302E0603193D2C5D2C00302106031D6E
:10288000432C00302006031D5D2C00302306031D61
:102890004B2C00302206031D5D2C00302506031D45
:1028A000532C00302406031D5D2C0A1215270A162E
:1028B0000630C1000030C200582D003083162106BA
:1028C000031D642C0130200603196F2C00302306F1
:1028D000031D6C2C0130220603196F2C8F2C003045
:1028E0002D06031D752C00302C06031D8F2C003087
:1028F0002F06031D7D2C00302E06031D8F2C00306B
:102900003106031D852C00303006031D8F2C0A1262
:10291000CB250A160530C1000030C200582D00300A
:1029200083162706031D962C013026060319A92CB1
:1029300000302906031D9E2C013028060319A92CFE
:1029400000302B06031DA62C01302A060319A92CE2
:10295000C12C00303106031DAF2C01303006031DA1
:10296000C12C00302F06031DB72C01302E06031D8D
:10297000C12C0A1215270A160630C1000030C20009
:10298000582D003083162706031DC82C013026065B
:102990000319DB2C00302906031DD02C013028063A
:1029A0000319DB2C00302B06031DD82C01302A061E
:1029B0000319DB2CF32C00302106031DE12C013020
:1029C0002006031DF32C00302306031DE92C0130E3
:1029D0002206031DF32C0A12CB250A160530C1006E
:1029E0000030C200582D83122208013A031DFA2C30
:1029F000FF302106031D112D0A120B260A16063080
:102A0000FB001330FC00AD30FD00FD0B052DFC0B71
:102A1000052DFB0B052D000000000A12E3210A160C
:102A2000582D00304206031D172D01304106031DAD
:102A30001D2D0A1224270A16582D00304206031DA8
:102A4000232D02304106031D292D0A1214240A16D3
:102A5000582D00304206031D2F2D03304106031D63
:102A6000352D0A1224270A16582D00304206031D60
:102A70003B2D04304106031D412D0A1214240A1671
:102A8000582D00304206031D472D05304106031D19
:102A90004D2D0A12CB250A16582D00304206031D73
:102AA000532D06304106031D582D0A1215270A160C
:102AB000003083163106031D5F2D00303006031DE4
:102AC000652D8312BB01BC01692D8312BB0A03195A
:102AD000BC0A003083162106031D702D003020062D
:102AE000031D762D8312B701B8017A2D8312B70A20
:062AF0000319B80A0800FA
:102AF6000030831203135206031D832D0030510646
:102B0600031D9A2D0A1275260A16831203137008DE
:102B1600D1007108D20000307106031D942D0130DA
:102B26007006031D992D0A12E3210A16422F003062
:102B36005206031DA02D01305106031DBB2D0A129E
:102B4600EA210A160030831203135606031DAD2D23
:102B560000305506031DB32D0A1210210A16BA2D90
:102B66000A12E3210A160230D1000030D200422FA9
:102B760000305206031DC12D02305106031DDB2D08
:102B86008A150A12AB228A110A1600305606031D50
:102B9600CE2D00305506031DDA2D0330D10000304E
:102BA600D2000A12E3210A160A12E5200A16422F5B
:102BB60000305206031DE12D03305106031D022E7F
:102BC6000A126A260A16B4308316D4000A12452061
:102BD6000A16BE308316D4000A1288200A168030E0
:102BE600F000803050067002031DFB2D4F08143C88
:102BF6000318012E0430D1000030D200422F0030DD
:102C06005206031D082E04305106031D272E8A1571
:102C16000A1200208A110A160A12EA210A168030C0
:102C260083120313F000803056067002031D1D2E1A
:102C36005508003C0318262E0530D1000030D2007E
:102C46000A12E5200A16422F00305206031D2D2EC9
:102C560005305106031D5E2EB4308316D4000A12C9
:102C660045200A16B4308316D4000A1288200A16A4
:102C76000A1210210A168030F000803050067002C9
:102C8600031D472E4F08023C03185D2E0A12E3214E
:102C96000A161A30FB005E30FC006E30FD00FD0B9C
:102CA600522EFC0B522EFB0B522E00000630D1008A
:102CB6000030D200422F00305206031D642E06302B
:102CC6005106031DD52EB9308316D4000A124520AD
:102CD6000A16B9308316D4000A1288200A160A1278
:102CE60023240A1670088316C6007108C7000A1244
:102CF6001A260A167008F2007108F300F20DF30D99
:102D06007210F20DF30D721080307306F0008030F1
:102D1600831647067002031D922E46087202031898
:102D2600982E0A1209240A16D42E0A1223240A16E9
:102D360070088316C6007108C7000A121A260A16FA
:102D46007008F2007108F300F20DF30D7210F20D27
:102D5600F30D7210803083164706F000803073063C
:102D66007002031DB82E720846020318BE2E0A1200
:102D760056210A16D42E0A12E3210A160730D1006C
:102D86000030D2000A12E5200A16B4308316D400A9
:102D96000A1245200A16B4308316D4000A12882077
:102DA6000A16422F00305206031DDB2E073051064D
:102DB600031D422F0A1268210A160A12EA210A1670
:102DC6000030831203133006031DEB2E04302F064A
:102DD600031DF12E0130AD000030AE000030560666
:102DE600031DF72E00305506031D422F0A12E3215C
:102DF6000A16D101D20100302E06031D042F003021
:102E06002D06031D402F0A1210210A160830FB005A
:102E16009D30FC000530FD00FD0B0F2FFC0B0F2F26
:102E2600FB0B0F2F000000000A12E5200A164F08C0
:102E36002B07F3002C080318013E5007F400730813
:102E4600F1007408F200F20CF10CF213721BF21787
:102E560080307206F00080307002031D342F2C3053
:102E6600710203183A2F0A1209240A161A2F0A1297
:102E7600E3210A160A12E5200A16AD01AE01080082
:103000008A110A12F0278A150A16C0308316031394
:1030100088008130870006309F0005168A110A1249
:1030200097278A150A160613861383121214921014
:10303000F930831692008A110A1291278A150A160E
:1030400012149210F930831692008A110A128B27FB
:103050008A150A16B4308316D4008A110A12452044
:103060008A150A16B4308316D4008A110A128820F1
:103070008A150A168A110A1283278A150A168A11D6
:103080000A126C278A150A1683160516071483126E
:1030900088178316881708148814081587110712D3
:1030A00087120713881508168A110A12E5208A1557
:1030B0000A168A110A1274278A150A168A110A1228
:1030C000E3218A150A160D30FB00AF30FC00B63044
:1030D000FD00FD0B6928FC0B6928FB0B692800002B
:1030E0008A110A120B268A150A168A110A12EA2177
:1030F0008A150A168A110A12C7248A150A16700838
:103100008312A1007108A20000307106031D8A28F5
:1031100000307006031970288A110A12EA218A15F4
:103120000A168A110A1223248A150A167008B50095
:103130007108B6008A110A121A268A150A16700832
:10314000BF007108C00000303E06031DA9280030F2
:103150003D06031D16298A1120238A153608013AD7
:10316000031DB428FF303506031DF8288A110A1202
:10317000E3218A150A160D30FB00AF30FC00B63093
:10318000FD00FD0BC128FC0BC128FB0BC128000072
:103190008A110A120B268A150A160330FB008A30A0
:1031A000FC005530FD00FD0BD328FC0BD328FB0B96
:1031B000D3280000000000304006031DE1281F3026
:1031C0003F06031DF7283608013A031DE928FF30A2
:1031D0003506031DF72800303E06031DF128003098
:1031E0003D06031DF7280130BD000030BE00152943
:1031F00080303C06F0008030013A7002031D022945
:10320000F4303B020318112980303806F00080307A
:10321000013A7002031D0E29F430370203181129F8
:1032200015290130BD000030BE00FD2900303E06EA
:10323000031D1C2901303D06031D752900303A0687
:10324000031D242900303906031D34290430831658
:10325000CE000030CF008A110A1256258A150A16B0
:103260000130B9000030BA000A1256250A160030A3
:103270003606031D3D2900303506031D7429043030
:103280008316CE000030CF008A110A1256258A1507
:103290000A168A110A120B268A150A160330FB0039
:1032A0008A30FC005530FD00FD0B5429FC0B5429DD
:1032B000FB0B5429000000008A110A12E3218A1531
:1032C0000A1600303606031D672900303506031D37
:1032D00070290230BD000030BE00B901BA01742966
:1032E0000130BD000030BE00FD2900303E06031D48
:1032F0007B2902303D06031DFD2900303A06031DDF
:10330000832900303906031D932904308316CE002B
:103310000030CF008A110A1256258A150A1602308B
:10332000B9000030BA008A1100208A1500308312DB
:1033300003137106031D9E2900307006031DA12989
:1033400093298A117B258A153608013A031DAA297B
:10335000FF303506031DFD298A110A12E3218A1563
:103360000A160D30FB00AF30FC00B630FD00FD0B3F
:10337000B729FC0BB729FB0BB72900008A110A12E9
:1033800068218A150A168A110A12EA218A150A1674
:103390008A110A1223248A150A167008B5007108CA
:1033A000B6008A110A121A268A150A167008BF007A
:1033B0007108C00000307106031DE0291F3070063F
:1033C000031DF5298A110A12E3218A150A161A30FB
:1033D000FB005E30FC006E30FD00FD0BED29FC0BA8
:1033E000ED29FB0BED290000FD293608013A031DEC
:0E33F000FB29FF3035060319BE298C28FE2963
:041D72000034003405
:041D76000034003401
:041D7A0000340034FD
:041D7E0000340034F9
:041D82003C340034B9
:041D860000340034F1
:041D8A0000340034ED
:041D8E0000340034E9
:041D9200C83400341D
:041D9600E6340034FB
:041D9A0000340034DD
:041D9E0000340034D9
:041DA20000340034D5
:041DA60000340034D1
:041DAA0000340034CD
:041DAE0000340034C9
:041DB20000340034C5
:041DB60000340034C1
:041DBA00C8340034F5
:041DBE00E1340034D8
:041DC200CD340034E8
:041DC60000340034B1
:041DCA0000340034AD
:041DCE0000340034A9
:041DD20000340034A5
:041DD60000340034A1
:041DDA00003400349D
:04400E00F22F000786
:00000001FF
