:040000008A15282E07
:100006007B15FB1F0D280130F300F201F101F00111
:08001600FA0DF20CFF300800A6
:0E001E00F201F101F001F801F30100300800D9
:08002C00FA1FF2130030080076
:10003400FB14FB1F2428FF30F300F200F100F00052
:08004400FA0DF20CFF30080078
:10004C00243083120313FC00B530FD00FD0B2C286B
:0A005C00FC0B2C2800000000080037
:0E006600533083120313FD00FD0B37280800F2
:0C00740000000000000000000000080078
:10008000A1017208031D55287108F2007008F100E3
:10009000F001A1157208031D55287108F200F10145
:1000A000A11121167208031963282108F302031D08
:1000B000031C67280310F21B6B28F00DF10DF20DE5
:1000C000F30B5B2867280130FC000F206E280230FC
:0E00D000FC0003206E280430FC0016200800FF
:1000DE007C18A528FC1876287C19C4286F28A10145
:1000EE007208031D96287108F2007008F100780856
:1000FE00F000F801A1157208031D96287108F20090
:10010E007008F100F001A11121167208031D962846
:10011E007108F200F101A11572080319B82821081F
:10012E00F302031D031CBC280310F21BA528F80DB7
:10013E00F00DF10DF20DF30B9C28BC287B1B701CEF
:10014E00C028F81FC028F00A0319F10A0319F20A91
:10015E00031DC028F20CF10CF00CF30A0319C4288D
:10016E00C0280130FC000F20C7280230FC000320FD
:10017E00C7280430FC001620C7280830FC001A20BF
:04018E000000080065
:0E0192008312031335088A0034088200080027
:1001A00083120313FA017308031D7A147708031DE1
:1001B000FA147A0803191C29033A0319E7287A1854
:1001C000E428F61F1A291829F21F18291A2972087B
:1001D0008039FA00F21376088039F6137A0603198B
:1001E000F5287A08031918291A29770873020319C0
:1001F000FC28031C1029142976087202031903290C
:10020000031C102914297508710203190A29031CFB
:10021000102914297408700203191C2903181429C1
:10022000FA0803191A291829FA08031918291A298A
:100230000314080003100800031403150800080045
:06024000FB15FF30080071
:1002460083160313BB1B2A29831288112C298312B8
:10025600881583163B1B3229831208113429831211
:1002660008158316BB1A3A29831288103C29831273
:10027600881483163B1A42298312081044298312D4
:1002860008143718482988164929881208163A206A
:1002960008128316BB195229831288115429831216
:1002A600881583163B195A29831208115C29831273
:1002B60008158316BB1862298312881064298312D5
:1002C600881483163B186A29831208106C29831236
:1002D60008143718702988167129881208163A20CA
:0E02E6000812371C78292620792933200800B9
:1002F40083120313FB017308031D77080319D12923
:1003040072087606FA007708F3077E30031C8E29FC
:10031400F3020318D4299129F302031CD729720884
:10032400F8007108FC007008FD00F817F6170310B8
:10033400F201F101F0011830A1007D1CAB29740811
:10034400F00775080318750FF10776080318760F80
:10035400F207F20CF10CF00CF80CFC0CFD0C031081
:10036400A10B9F29F21BBB29F80DF00DF10DF20D25
:10037400F3037B1B701CCD29F81FCD29F00A031948
:10038400F10A0319F20A031DCD29F20CF10CF00C49
:10039400F30A0319D429FA1FF2130030D9290130C2
:1003A4000F20D92902301A20D92904300320000053
:0203B40008003F
:1003B6008312031372087606A100F801F901730887
:1003C6007702031CFE297708FD007308F7007D08F5
:1003D600F3007608FD007208F6007D08F200750845
:1003E600FD007108F5007D08F1007408FD00700835
:1003F600F4007D08F00077080319772A7208FA00DE
:10040600F217F61777087302F7000319312A083036
:100416007702031C272AF7007408F9007508F40010
:100426007608F500F60108307702031C272AF70044
:100436007408F9007508F400F50108307702031C0A
:10044600272A7A08F200772A77080319312A031037
:10045600F60CF50CF40CF90CF70B2A2AA11F3E2A10
:10046600F909F409F509F609F90A0319F40A031951
:10047600F50A0319F60A7908F80774080318740FC1
:10048600F00775080318750FF10776080318760F3D
:10049600F207A11B572A031C672AF20CF10CF00C79
:1004A600F80CF30F672A732A03186B2AF809F00968
:1004B600F109F209F80A0319F00A0319F10A0319F6
:1004C600F20A8030FA066F2A0130FC006F20792A82
:1004D6000230FC006F20792A0430FC004020792A83
:1004E6000830FC001A20792A0030FC0000000800C1
:1004F600831603131419892A1F301105F100710898
:10050600003A031D892A0130F0000800F0010800B6
:100516007408F8027508031C750FF9027608031CA7
:10052600760FFA027708031C770FFB02F30D0730EC
:10053600FC00730DF80DF90DFA0DFB0D7408731C14
:10054600B22AF8027508031C750FF9027608031C17
:10055600760FFA027708031C770FFB02BF2AF8070B
:1005660075080318750FF90776080318760FFA074A
:1005760077080318770FFB07F30DFC0B9C2A720D07
:10058600F80DF90DFA0DFB0D7408731CD82AF80244
:100596007508031C750FF9027608031C760FFA021C
:1005A6007708031C770FFB02E52AF807750803187E
:1005B600750FF90776080318760FFA0777080318F8
:1005C600770FFB07F20D0730FC00720DF80DF90DE1
:1005D600FA0DFB0D7408721CFE2AF8027508031C3E
:1005E600750FF9027608031C760FFA027708031CCA
:1005F600770FFB020B2BF80775080318750FF90721
:1006060076080318760FFA0777080318770FFB07A3
:10061600F20DFC0BE82A710DF80DF90DFA0DFB0D24
:100626007408721C242BF8027508031C750FF90256
:100636007608031C760FFA027708031C770FFB0275
:10064600312BF80775080318750FF9077608031894
:10065600760FFA0777080318770FFB07F10D0730B7
:10066600FC00710DF80DF90DFA0DFB0D7408711CE7
:100676004A2BF8027508031C750FF9027608031C4D
:10068600760FFA027708031C770FFB02572BF80741
:1006960075080318750FF90776080318760FFA0719
:1006A60077080318770FFB07F10DFC0B342B700D41
:1006B600F80DF90DFA0DFB0D7408711C702BF8027C
:1006C6007508031C750FF9027608031C760FFA02EB
:1006D6007708031C770FFB027D2BF80775080318B4
:1006E600750FF90776080318760FFA0777080318C7
:1006F600770FFB07F00D0730FC00700DF80DF90DB4
:10070600FA0DFB0D7408701C962BF8027508031C75
:10071600750FF9027608031C760FFA027708031C98
:10072600770FFB02A32BF80775080318750FF90757
:1007360076080318760FFA0777080318770FFB0772
:10074600F00DFC0B802B7018B62B7408F807750893
:100756000318750FF90776080318760FFA07770856
:080766000318770FFB070800E0
:10076E0083120313F401F501F601F70183162F0826
:10077E00F0003008F1003108F2003208F300D0200A
:10078E00013003180030F00070080319DC2B003024
:10079E0083162F06F00000303006F100803031064F
:1007AE00F20000303206F300080083162F08F00026
:0E07BE003008F1003108F2003208F3000800A4
:1007CC00FB09FA09F909F809F80A0319F90A0319D6
:0807DC00FA0A0319FB0A0800E8
:1007E400831203137408003A031D0D2C7508003A94
:1007F400031D0D2C7608003A031D0D2C7708003AD2
:10080400031D0D2CFF30F000FF30F1007F30F200AB
:10081400FF30F300080083120313770803199C2C9C
:10082400730803199F2C720876068039FA00F217B0
:10083400F617A1017208F8007108FC007008FD00A9
:100844007408FD027508031C750FFC027608031C6E
:10085400760FF802F801FC01FD01031C382C03108B
:10086400F20CF10CF00CF80C0130A1007708F30243
:10087400031C422C7E302107F3070318A22C472CBB
:100884007E302107F307031CA52C1830FA07FD0D51
:10089400FC0DF80DF00DF10DF20DA10D7408F00230
:1008A4007508031C750FF1027608031C760FF2021B
:1008B400760DA104211C602C7D146B2C7408F007A8
:1008C40075080318750FF10776080318760AF207FE
:1008D4007D10FA031F307A05031D492C7B1B7D1CF8
:1008E400922C0310F00DF10DF20DA10D7408F0021D
:1008F4007508031C750FF1027608031C760FF202CB
:10090400760D21040139FD070318FC0A0319F80ABE
:10091400031D922CF80CFC0CFD0CF30A0319A22CF9
:10092400FA1FF8137808F2007C08F1007D08F00043
:100934000030A72C01302021A72C02300F20A72C37
:0E09440004301A20A72C083003200000080001
:100952008312031373087706031DBC2C72087606F4
:10096200031DBC2C71087506031DBC2C700874068F
:0C09720003190315080003110800080019
:10097E00831203132230FC00F801F901FA01FB0186
:10098E00FC030319F52C0310FB0CFA0CF90CF80CF4
:10099E00F30CF20CF10CF00C031CC72CFC03031926
:1009AE00E72C7408F80775080318750FF907760811
:1009BE000318760FFA0777080318770FFB07CB2C6F
:1009CE007408F80775080318750FF90776080318E9
:0E09DE00760FFA0777080318770FFB0708005B
:1009EC0083120313F801F9011030FC00710DF80D9E
:1009FC00F90D7408F8027508031C750FF902031839
:100A0C000E2D7408F80775080318750FF9070310F5
:0A0A1C00F00DF10DFC0BFC2C08009E
:0C0A2600831203138030F606DB21080069
:100A32007B14FB1F242DF201FA1FFF30F200F1009C
:0A0A4200F000FA0DF20CFF3008007E
:100A4C0083120313371083162F08BB00232137148E
:020A5C00080090
:100A5E00831603133508F0003608F100F00DF10D82
:100A6E007010F00DF10D70103308F00734080318F4
:100A7E00013EF10770088312B4007108B500C92059
:100A8E008A110A128316B7008312B40A0319B50A23
:100A9E00C9208A110A128316B8008312B40A0319E8
:100AAE00B50AC9208A110A128316B9008312B40A34
:100ABE000319B50AC9208A110A128316BA0035081D
:100ACE0036040319B92D2F08F0003008F100310853
:100ADE00F2003208F3003708F4003808F500390840
:100AEE00F6003A08F7007A2101308316B502031C8E
:100AFE00B6033508F4003608F500F40DF50D741044
:100B0E00F40DF50D74103308F40734080318013E84
:100B1E00F50774088312B4007508B500C9208A1150
:100B2E000A12F400B40A0319B50AC9208A110A126E
:100B3E00F500B40A0319B50AC9208A110A12F60083
:100B4E00B40A0319B50AC9208A110A12F700DB216B
:100B5E0070088316B7007108B8007208B9007308E0
:100B6E00BA00662D3708F0003808F1003908F20097
:060B7E003A08F300080034
:100B840083160313A501053025020318D02D25086B
:100B94002407840020308000A50AC52D25082407D9
:100BA40084008001A50325082407A6000A30F40068
:100BB400F5012208F0002308F100F6247808F0007B
:100BC4007908F1003030F007831626088400700895
:100BD40080000A30F400F5012208F0002308F10037
:100BE400F62470088316A2007108A3000030710671
:100BF400031DFE2D00307006031D012E032EA503D8
:040C0400D52D0800E2
:100C080083120313FB01FC01FA0173080319432E35
:100C1800F2178E30F302F31B142E0319142E462EEE
:100C2800F309F30A08307302031C292EF300F10DAF
:100C38007208F100F20108307302031C292EF10D2D
:100C4800F1017308031D0310312E73080319312EA7
:100C58000310F20CF10CF30B2C2E7B1B711C3B2E9A
:100C6800031C3B2EF10A0319F20AF21B522EFA1F3B
:100C7800552EF209F109F10A0319F20A552EF2016B
:100C8800F101552E7B14FB1F582EF201FA1F582E26
:100C9800FF30F200F100FA0DF20C582E0130FC0082
:100CA8005A2E0030FC005A2EFF30FC00FC080319B5
:0E0CB8005E2E19257108F0007208F100080088
:100CC600831603132208AF002308B0002408B100DE
:100CD6002508B200B7237008A7007108A80072089B
:100CE600A9007308AA00F401F501F601F701A92489
:100CF6000130031D0030F00070080319872EF00143
:100D0600F101F201F301080083162708F400280810
:100D1600F5002908F6002A08F7000030F000003038
:100D2600F1000030F2007F30F300D02001300318CC
:100D36000030F00070088316A60070080319BD2E57
:100D46002708F4002808F5002908F6002A08F70005
:100D56000030F0000030F1000030F2007F30F30088
:100D6600F22370088316A7007108A8007208A9006C
:100D76007308AA002708F0002808F1002908F200E5
:100D86002A08F3002708F4002808F5002908F600C9
:100D96002A08F7007A2170088316AB007108AC00A8
:100DA6007208AD007308AE007008AF007108B0009D
:100DB6007208B1007308B2006730B3000E30B40099
:100DC6000530B5000030B6002F252708F4002808A6
:100DD600F5002908F6002A08F7007A21700883161C
:100DE600A7007108A8007208A9007308AA002B08BA
:100DF600AF002C08B0002D08B1002E08B2007F30DD
:100E0600B3000E30B4000430B5000030B6002F2514
:100E16007008F4007108F5007208F6007308F70010
:100E26002708F0002808F1002908F2002A08F30034
:100E3600F22370088316A7007108A8007208A9009B
:100E46007308AA0026080319422F2708F400280869
:100E5600F5002908F6002A08F700DB30F0000F300D
:100E6600F1004930F2007F30F30013257008831635
:100E7600A7007108A8007208A9007308AA00F40167
:100E8600F501F601F7012208F0002308F100240815
:100E9600F2002508F300D020013003180030F000DE
:100EA60070080319642F003083162706F0000030FF
:100EB6002806F10080302906F20000302A06F300E9
:100EC6006D2F83162708F0002808F1002908F20084
:100ED6002A08F3007008A7007108A8007208A90084
:060EE6007308AA000800D9
:100EEC00882F803083160313A2009B2FC030A200E2
:100EFC009B2F9430A2009B2FD430A2009B2F8030CC
:100F0C00A2009B2F831603132208013A0319772F93
:100F1C002208023A03197C2F2208033A03197F2F67
:100F2C002208043A0319822F852F2303F00022088C
:100F3C00F0077008A2007008BB002321371083163D
:100F4C00A50125082407840000080319B62F2508DD
:100F5C00240784000008AF0026258316A50AA72FB6
:060F6C0083123714080097
:100F7200831203137008F8007108F0007208F10080
:100F82007308F200F301FB01FC019E30F300FA0149
:100F9200F21FD72FF809F009F109F209F80A03192B
:100FA200F00A0319F10A0319F20AFA170230FC00D7
:040FB2006F200800A4
:100FB600831203138C118316911583128C19E42F57
:100FC600E02F1308F10083162208003A031DED2FC7
:100FD6009116EE2F911283128C118316111683121D
:0C0FE6008C19F62FF22F7108F0000800A3
:0E0FF200831603139114911CFF2FFC2F08008F
:10100000831203137408003A031D1B287508003A65
:10101000031D1B287608003A031D1B287708003A99
:10102000031D1B28FF30F000FF30F100FF30F200FD
:101030007F30F300080083120313FC01F71BFC0A46
:10104000FD01FB01FA01F901F80173087204710452
:1010500070040319B12873087706A000A01BFD09CE
:10106000F71F3D28F409F509F609F709F40A0319F1
:10107000F50A0319F60A0319F70AF31F4A28F009BB
:10108000F109F209F309F00A0319F10A0319F20A46
:101090000319F30A73087704A000A01B6D288A11B6
:1010A0008B228A15FC1B8A28FD1FB128F009F10943
:1010B000F209F309F00A0319F10A0319F20A0319F4
:1010C000F30AF809F909FA09FB09F80A0319F90AF8
:1010D0000319FA0A0319FB0AB128F71F8428F31B26
:1010E0007E287308FB007208FA007108F900700886
:1010F000F800F301F201F101F0015428F301F201CB
:10110000F101F001F00A0034F309F209F109F009E4
:10111000FC174F28F80A0319F90A0319FA0A0319E8
:10112000FB0A74087802031D542875087902031D10
:10113000542876087A02031D542877087B02031D81
:101140005428FB01FA01F901F801F00A0319F10A28
:101150000319F20A0319F30AF31F5428A0012016F9
:10116000FF34A0017C1CB7288A11E6238A15003EB3
:02117000080075
:101172008030831603132306F00080307002031DB3
:10118200C4287F302202031C02292308A800220857
:10119200A700A601A9012408A60725080318013EF5
:1011A200A7070030A71BFF30A800A9000130A60244
:1011B200031CA702031CA802031CA9022609F000B3
:1011C2002709F1002809F2002909F3007008A60096
:1011D2007108A7007208A8007308A900FF30F40084
:1011E200FF30F500F600F7008A11BF248A15700857
:1011F2008316A6007108A7007208A8007308A90048
:1012020008002308A8002208A700A601A9012408B3
:10121200A60725080318013EA7070030A71BFF30C9
:0E122200A800A9002608F0002708F100080027
:081230008316031311150800D9
:101238008316031314139413071687153830831273
:041248009400080006
:10124C00831203138C1183162208831293008316C6
:10125C00141D31292D2983128C1935293129831616
:10126C00111B3A29F001080011150230F00008009A
:10127C0083160313A201A3012308123C031D482962
:10128C0022088E3C031C55298A117B228A15700872
:10129C00031951295529A20A0319A30A422912300C
:1012AC002302031D5B298F302202031C60297B3033
:1012BC00F00008001114111C64296129F0010800C8
:1012CC003E213C30A20026210230A2002621A201A0
:1012DC00262118213E218A117B228A1570080319B8
:1012EC0089293C30A20026210330A20026218A1134
:1012FC00F9278A153D30A2002621A2018A11DB278D
:10130C008A157008B00018213E218A117B228A159B
:10131C0070080319A3293C30A20026210430A20036
:10132C0026218A11F9278A153D30A2002621A20117
:10133C008A11DB278A157008AF0018213E218A110B
:10134C007B228A1570080319BD293C30A200262186
:10135C000530A20026218A11F9278A153D30A200FA
:10136C002621A2018A11DB278A157008AE001821EC
:10137C003E218A117B228A1570080319D7293C302B
:10138C00A20026210630A20026218A11F9278A15EF
:10139C003D30A2002621A2018A11DB278A15700894
:1013AC00B30018213E218A117B228A15700803197B
:1013BC00F1293C30A20026210730A20026218A11F7
:1013CC00F9278A153D30A2002621A2018A11DB27BC
:1013DC008A157008B20018213E218A117B228A15C9
:1013EC00700803190B2A3C30A20026210830A200F9
:1013FC0026218A11F9278A153D30A2002621A20147
:10140C008A11DB278A157008B10018218312300865
:10141C008316A200A30183122F088316A400A50132
:10142C00B92070088312E4007108E5000030E51B58
:10143C00FF30E600E70032088316A200A3018312F6
:10144C0031088316A400A501B92070088312E000AE
:10145C007108E1000030E11BFF30E200E300803056
:10146C006706F00080307002031D462A00306602C9
:10147C00031D462A00306502031D462A0030640213
:10148C00031CAF2A80306306F00080307002031D0D
:10149C00592A00306202031D592A00306102031DD3
:1014AC00592A00306002031CAF2A6408F400650856
:1014BC00F5006608F6006708F7006008F0006108A0
:1014CC00F1006208F2006308F30000208A11B927CA
:1014DC008A1570088316A2007108A3007208A40074
:1014EC007308A5008A1163268A15831203137008EA
:1014FC00A6007108A7007208A8007308A9000030A4
:10150C00F4000030F5007030F6008430F7008A11DA
:10151C007A218A157008A6007108A7007208A80025
:10152C007308A9008A1104268A1570088316A20074
:10153C007108A3006830A4008A11C2258A150130F5
:10154C00A2000A30A3006830A4008A1176278A15FD
:10155C007F2C80306706F00080307002031DC02A9B
:10156C0000306602031DC02A00306502031DC02A2C
:10157C00003064020318552B80306306F000803075
:10158C007002031DD32A00306202031DD32A0030DF
:10159C006102031DD32A00306002031C552B640822
:1015AC00F0006508F1006608F2006708F300FF30F0
:1015BC00F400FF30F500F600F7008A11BF248A15FD
:1015CC007008F4007108F5007208F6007308F70053
:1015DC006008F0006108F1006208F2006308F30093
:1015EC0000208A11B9278A1570088316A200710889
:1015FC00A3007208A4007308A5008A1163268A153B
:10160C00831203137008A6007108A7007208A800C3
:10161C007308A9000030F4000030F5007030F600BB
:10162C008430F7008A117A218A157008A600710897
:10163C00A7007208A8007308A9007008F4007108CC
:10164C00F5007208F6007308F7000030F000003067
:10165C00F1003430F2008630F3008A1113258A151C
:10166C007008A6007108A7007208A8007308A900EA
:10167C008A1104268A1570088316A2007108A3002B
:10168C006830A4008A11C2258A150130A2000A30E4
:10169C00A3006830A4008A1176278A157F2C80302D
:1016AC006706F00080307002031D662B0030660266
:1016BC00031D662B00306502031D662B003064028F
:1016CC000318E22B80306306F00080307002031D9B
:1016DC00792B00306202031D792B00306102031D4F
:1016EC00792B003060020318E22B6408F4006508C3
:1016FC00F5006608F6006708F7006008F00061085E
:10170C00F1006208F2006308F30000208A11B92787
:10171C008A1570088316A2007108A3007208A40031
:10172C007308A5008A1163268A15831203137008A7
:10173C00A6007108A7007208A8007308A900003061
:10174C00F4000030F5007030F6008430F7008A1198
:10175C007A218A157008A6007108A7007208A800E3
:10176C007308A9000030F4000030F5003430F600A6
:10177C008630F7008A11DB218A157008A6007108E3
:10178C00A7007208A8007308A9008A1104268A15FC
:10179C0070088316A2007108A3006830A4008A1197
:1017AC00C2258A150130A2000A30A3006830A400BB
:1017BC008A1176278A157F2C80306706F0008030DE
:1017CC007002031DF32B00306602031DF32B003057
:1017DC006502031DF32B00306402031C7F2C803048
:1017EC006306F00080307002031D062C003062028C
:1017FC00031D062C00306102031D062C0030600214
:10180C0003187F2C6008F0006108F1006208F200F8
:10181C006308F300FF30F400FF30F500F600F7002A
:10182C008A11BF248A156408F4006508F50066085F
:10183C00F6006708F70000208A11B9278A1570088E
:10184C008316A2007108A3007208A4007308A500F7
:10185C008A1163268A15831203137008A600710877
:10186C00A7007208A8007308A9000030F40000302B
:10187C00F5007030F6008430F7008A117A218A1551
:10188C007008A6007108A7007208A8007308A900C8
:10189C007008F4007108F5007208F6007308F70080
:1018AC000030F0000030F1003430F2008730F300EB
:1018BC008A1113258A157008A6007108A7007208F2
:1018CC00A8007308A9008A1104268A1570088316CB
:1018DC00A2007108A3006830A4008A11C2258A15E1
:1018EC000130A2000A30A3006830A4008A117627C8
:1018FC008A1580306706F00080307002031D902C32
:10190C0000306602031D902C00306502031D902CE4
:10191C0000306402031CB22C64088316A2008312EC
:10192C0065088316A3006830A4008A11C2258A15A5
:10193C000130A2000230A3006830A4008A1176277F
:10194C008A1501308316A2000130A3002C30A400AC
:10195C008A1176278A15E82C6408F0006508F100D6
:10196C006608F2006708F300FF30F400FF30F50062
:10197C00F600F7008A11BF248A157008E40071087C
:10198C00E5007208E6007308E70070088316A200F1
:10199C007108A3006830A4008A11C2258A15013091
:1019AC00A2000230A3006830A4008A1176278A15A1
:1019BC0001308316A2000130A3002A30A4008A1142
:1019CC0076278A1580306306F00080307002031D84
:1019DC00F92C00306202031DF92C00306102031D4A
:1019EC00F92C00306002031C1B2D60088316A2002A
:1019FC00831261088316A3006830A4008A11C225E3
:101A0C008A150230A2000230A3006830A4008A11AB
:101A1C0076278A1502308316A2000130A3002430E9
:101A2C00A4008A1176278A15512D6008F0006108F0
:101A3C00F1006208F2006308F300FF30F400FF309D
:101A4C00F500F600F7008A11BF248A157008E00033
:101A5C007108E1007208E2007308E3007008831655
:101A6C00A2007108A3006830A4008A11C2258A154F
:101A7C000230A2000230A3006830A4008A1176273D
:101A8C008A1502308316A2000130A3002230A40074
:081A9C008A1176278A15080063
:101AA400831603130812881208108810081188116D
:101AB40083120812881288110811881008108A11DC
:101AC40026208A158A1126208A158A1126208A152D
:101AD4008814081408168A113A208A1508128A11E3
:101AE40026208A1508168A113A208A1508128A11A6
:101AF40026208A1508168A113A208A1508128A1196
:101B040026208A15081008168A113A208A15081208
:101B14008A1126208A1508168A113A208A15081275
:101B24008810881508168A113A208A1508128A1115
:101B340026208A158811081408168A113A208A1555
:101B44000812081008168A113A208A1508128A11F8
:101B540026208A1508168A113A208A1508120814B4
:101B640008168A113A208A1508128A1126208A1525
:101B7400081008168A113A208A15081288150815C3
:101B84008814081408168A113A208A1508128A1132
:081B940026208A153714080011
:101B9C00831203138901FF30831689008312870196
:101BAC0020308316870001308312B6003230831642
:101BBC0093001C218316A001A10180302106F000A6
:101BCC0080307002031DEC2D0530200203181A2EF4
:101BDC002008F0002108F100F00DF10D7010F00D4F
:101BEC00F10D701070084C3E84008001840A800155
:101BFC00840A8001840A80012008F0002108F10089
:101C0C00F00DF10D7010F00DF10D70107008383EE4
:101C1C0084008001840A8001840A8001840A800186
:0A1C2C00A00A0319A10AE32D080025
:101C36008A11C9208A150A128000840AB40A031977
:0A1C4600B50AF003031D1B2E080071
:101C50002D3083120313A200A3012B30A400A50191
:101C6000A601A701A801A9012D30AA00AB012B30C4
:101C7000AC00AD01CE250330FB008A30FC005530AE
:101C8000FD00FD0B412EFC0B412EFB0B412E0000F5
:101C90000000522501308316BB008A1123218A15CA
:101CA0000C308316BB008A1123218A15662103306C
:101CB000FB008A30FC005530FD00FD0B5D2EFC0B57
:0E1CC0005D2EFB0B5D2E00000000562E662EE2
:101CCE0006343C34043484347D349F346A34843492
:101CDE005C3490340134843460344D343B3481347C
:101CEE005134EC3447347C34DE348D349F347634C6
:101CFE0006343C3404348434C03459340B348534C3
:101D0E007434043444348434F9349B344F34823480
:081D1E000034003400347F346E
:04400E00F22F000786
:00000001FF
