:02000000432D8E
:10000800FF00030E8301BD000A08BE008A017008C4
:10001800A0000B1D1128FE240B112008F0003E083B
:0C0028008A003D0E8300FF0E7F0E0900D1
:1000340083120313FB01FA01F9018030F800F10C7B
:10004400F00C031C2E287408F90775080318750FA3
:10005400FA070318FB0A0310F01F36287408FA077E
:1000640075080318750FFB07FB0CFA0CF90CF80C58
:10007400031C21287B08F3007A08F2007908F100B8
:060084007808F0000800FE
:10008A00831603131208013EF000F1010318F10A66
:10009A0083124708F400F5011A200630F2007008AE
:1000AA00F4007108F500720803196028F50CF40CC5
:1000BA00F513FF3E59280430F1007408F000710866
:1000CA0003196B28F00D7010FF3E65288312031385
:1000DA0030307005F3007408F0007508F100F10C77
:1000EA00F00CF113F10CF00CF11370089B000F30B7
:0800FA009D0573089D04080038
:0C010200000000000000000000000800E9
:10010E00831603131208013EF000F1010318F10AE1
:10011E0083124708F400F5011A200630F200700829
:10012E00F4007108F50072080319A228F50CF40CFE
:10013E00F513FF3E9B280430F1007408F00071089F
:10014E000319AD28F00D7010FF3EA728831203137C
:10015E0030307005F3007408F0007508F100F10CF2
:10016E00F00CF113F10CF00CF113700895000F3038
:08017E009705730897040800BF
:10018600831203138715071707128716BE30C70099
:0A0196008720BE30C7004520080096
:1001A0008312031387150712871207170330A30062
:0601B0000030A40008006D
:0E01B60083120313A501A601A101A2010800F6
:1001C400831203138715071707168712BE30C7005B
:0A01D4008720BE30C7004520080058
:1001DE008312031387110716871207170130A30026
:0601EE000030A40008002F
:0E01F4008312031387150717071687160800D6
:100202008312031387150712871607130230A30000
:060212000030A40008000A
:1002180083120313B701B801B70A0319B80A81207A
:10022800081F172929298030173AF000803038062E
:100238007002031D21293708703C03182829FF3054
:10024800F000FF30F10008001029B701B801B70A23
:100258000319B80A8120081B3429F001F1010800AC
:100268008030173AF000803038067002031D3E29AE
:100278003708703C03184529FF30F000FF30F100C3
:0602880008002B2908000C
:10028E0083120313BB01BC01BB0A0319BC0A8120F4
:10029E00871F522964298030173AF00080303C06BF
:1002AE007002031D5C293B08703C03186329FF3064
:1002BE00F000FF30F10008004B29BB01BC01BB0A66
:1002CE000319BC0A8120871B6F29F001F101080078
:1002DE008030173AF00080303C067002031D7929F9
:1002EE003B08703C03188029FF30F000FF30F1000E
:0602FE000800662908005B
:0E030400831203133A088A00390882000800A9
:1003120083120313881D9029081E9029E229081EC2
:10032200B9298819B929B430C7008720B430C70069
:10033200452001210330FB008A30FC005530FD00CE
:10034200FD0BA129FC0BA129FB0BA1290000000038
:10035200FA200230FB004530FC00A930FD00FD0B05
:10036200B029FC0BB029FB0BB02900000000E129E9
:10037200081AE129881DE129B430C7008720B4306A
:10038200C7004520EF200330FB008A30FC005530C7
:10039200FD00FD0BCA29FC0BCA29FB0BCA29000070
:1003A2000000FA200230FB004530FC00A930FD00BD
:1003B200FD0BD929FC0BD929FB0BD9290000000020
:1003C2008929FA200D30FB00AF30FC00B630FD0069
:1003D200FD0BE929FC0BE929FB0BE92900000800C8
:1003E2008312031386131330FD00FD0BF629000060
:1003F200000086171330FD00FD0BFD2900000000F0
:1004020086130C217008B5007108B6008230FC001A
:10041200DD30FD00FD0B0B2AFC0B0B2A0000000057
:100422003508F0003608F100F10CF00CF113711BE5
:04043200F1170800B6
:1004360083120313C301C401C501C601C830C70036
:100446008720C830C70045208030F0008030220663
:100456007002031D302A2108963C031C3E2A803078
:10046600F000803026067002031D3B2A2508963CC4
:10047600031C3E2A3F2ADB20D02080302206F000D3
:10048600803026067002031D4A2A25082102031C15
:100496006D2A25082102F1002608031C013E2202CE
:1004A600F20080307206F00080307002031D5D2A73
:1004B60003307102031C6C2AC32080302206F00030
:1004C600803026067002031D6A2A250821020318B9
:1004D6005F2A8D2A21082502F1002208031C013E0D
:1004E6002602F20080307206F00080307002031D92
:1004F6007E2A03307102031C8D2AE22080302606F4
:10050600F000803022067002031D8B2A2108250286
:060516000318802A080012
:10051C008030831203132806F00080307002031D14
:10052C00992A00302702031C9C2AA72A803028060F
:10053C00F00080307002031DA52A0030270203183A
:04054C00A72A0800D2
:100550008312031306131330FD00FD0BAD2A0000B8
:10056000000006171330FD00FD0BB42A0000000048
:10057000061347217008B5007108B6008230FC00F0
:10058000DD30FD00FD0BC22AFC0BC22A000000007A
:100590003508F0003608F100F10CF00CF113711B76
:0405A000F117080047
:1005A400C83083120313C7008720C830C700452012
:1005B4008E2200303006031DE12A00302F06031D71
:1005C400272BA822F12180303806F00080307002F9
:1005D400031DEE2AC8303702031CFC2A80303C0677
:1005E400F00080307002031DF92AC8303B02031C5E
:1005F400FC2A1F2BFA20C830C7008720C830C70048
:100604004520B30A0319B40A0430C3000030C400FF
:100614008921FA2000303206031D122B00303106E6
:10062400031D192B0130AF000030B0001D2B023028
:10063400AF000030B000DB20262BD430C700872069
:10064400C830C7004520D020CE2C00303006031D12
:100654002D2B01302F06031DB12BE630C700872058
:10066400E630C700452001210230FB004530FC0084
:10067400A930FD00FD0B3C2BFC0B3C2BFB0B3C2B56
:1006840000000000FA204130FC00EE30FD00FD0BBC
:10069400492BFC0B492B0000A822F1218030013AA0
:1006A400F000803038067002031D5A2B37082C3CAA
:1006B4000318732B8030013AF00080303C0670023E
:1006C400031D662B3B082C3C0318732BFA200130C6
:1006D400B1000030B2000330AF000030B000A90117
:1006E400AA018030F000803022067002031D7C2BAA
:1006F4002108113C0318B02B00303006031D842B55
:1007040003302F060319B02BA90A0319AA0A803053
:10071400F00080302A067002031D922B2908023C47
:100724000318992B0430AF000030B0009D2B023029
:10073400AF000030B000DB20FA2080302206F00049
:1007440080307002031DA82B113021020318AD2B39
:10075400EF208E229F2BFA20DB20FA20CE2C0030B3
:100764003006031DB72B02302F06031D4A2CE6303A
:10077400C7008720E630C7004520EF200230FB0089
:100784004530FC00A930FD00FD0BC62BFC0BC62B2D
:10079400FB0BC62B00000000FA200230FB004530A2
:1007A400FC00A930FD00FD0BD52BFC0BD52BFB0B5E
:1007B400D52B00000000A822F1218030013AF0007E
:1007C400803038067002031DE92B37082C3C0318CF
:1007D400002C8030013AF00080303C067002031D8A
:1007E400F52B3B082C3C0318002CFA20B101B20174
:1007F4000330AF000030B000A901AA018030F0003E
:10080400803022067002031D092C2108113C0318B4
:10081400492C00303006031D112C03302F06031918
:10082400492CA90A0319AA0A8030F00080302A064C
:100834007002031D1F2C2908023C0318262C0430C7
:10084400AF000030B0002A2C0130AF000030B000FF
:10085400DB20FA2080302206F00080307002031D75
:10086400352C1130210203183A2C01218E222C2C14
:10087400DB20FA200D30FB00AF30FC00B630FD0069
:10088400FD0B422CFC0B422CFB0B422C0000CE2C0B
:1008940000303006031D502C03302F06031D6A2C34
:1008A4008030F000803034067002031D5B2C330866
:1008B400043C0318672CFA200430C3000030C40041
:1008C4008921A701A801B301B401AF01B001CE2C65
:1008D40000303006031D702C04302F06031D942CA9
:1008E400EF20A822F1218030013AF0008030380650
:1008F4007002031D7F2C37082C3C0318932C803086
:10090400013AF00080303C067002031D8B2C3B083A
:100914002C3C0318932CFA200530AF000030B000B3
:10092400DB20CE2C00303006031D9A2C05302F0618
:10093400031DCE2C1B22A822F12180303806F000A2
:1009440080307002031DA82CC8303702031CC12C50
:1009540080303806F00080307002031DB32CC8309C
:100964003702031CC12C8030F00080302206700254
:10097400031DBE2C21083C3C031CC12CCE2CFA20A8
:100984000430C3000030C4008921A701A801B301C9
:0A099400B401DB20AF01B001080040
:0C099E00831203139B011D129D12080020
:1009AA00831603130711831212150C3097040800DB
:1009BA00831603138710831212150C309D04080046
:0C09CA0083120313950117129712080006
:0E09D6008530831603138100A0308B000800CB
:1009E40082218A110A128000840AB90A0319BA0AF8
:0809F400F003031DF22C0800C2
:1009FC0083120313071C042DAD01AE0107182D2D16
:100A0C0000302E06031D0C2D00302D06031D2D2D40
:100A1C000130AD000030AE00A50A0319A60A003063
:100A2C002406031D1B2D01302306031D212DA70AAF
:100A3C000319A80A2D2D00302406031D272D023082
:100A4C002306031D2D2D0130A702031CA803051E30
:100A5C00312DAB01AC01051A422D00302C06031DC3
:100A6C00392D00302B06031D422D0130AB00003018
:0A0A7C00AC00A10A0319A20A080049
:100A860083120313A101A201A301A401A501A601DA
:100A9600A701A801A901AA01AB01AC01AD01AE01F4
:100AA600AF01B001B101B201B301B401C030831688
:100AB60088008130870006309F000516EB24061358
:100AC6008613831212149210F93083169200E524CD
:100AD60012149210F93083169200CF24C330C70047
:100AE6008720BE30C7004520D524DD248316051691
:100AF6000714831288178316881708148814081594
:100B06008711071287120713881508160814881408
:100B1600DB20FA200D30FB00AF30FC00B630FD00C4
:100B2600FD0B932DFC0B932DFB0B932D0000D22276
:0E0B36001030FD00FD0B9D2D00009A2DA12D0D
:04400E00F22F000786
:00000001FF
