:040000008A15002835
:10000800FF00030E83018316B0000A088312EF0075
:100018008A017008A0000B1D1328A7270B112008C0
:10002800F0006F088A008316300E8300FF0E7F0EE3
:020038000900BD
:10003A0083120313FB01FA01F9018030F800F10C75
:10004A00F00C031C31287408F90775080318750F9A
:10005A00FA070318FB0A0310F01F39287408FA0775
:10006A0075080318750FFB07FB0CFA0CF90CF80C52
:10007A00031C24287B08F3007A08F2007908F100AF
:06008A007808F0000800F8
:10009000831603131208013EF000F1010318F10A60
:1000A0003B08F400F5011D200630F2007008F40052
:1000B0007108F500720803196228F50CF40CF513A9
:1000C000FF3E5B280430F1007408F000710803194A
:1000D0006D28F00D7010FF3E672883120313303037
:1000E0007005F3007408F0007508F100F10CF00CD5
:1000F000F113F10CF00CF113700895000F30970517
:06010000730897040800DB
:0C010600000000000000000000000800E5
:10011200831603131208013EF000F1010318F10ADD
:100122003B08F400F5011D200630F2007008F400CF
:100132007108F50072080319A328F50CF40CF513E5
:10014200FF3E9C280430F1007408F0007108031986
:10015200AE28F00D7010FF3EA82883120313303032
:100162007005F3007408F0007508F100F10CF00C52
:10017200F113F10CF00CF11370089B000F309D0588
:0601820073089D04080053
:0E018800831203138715071707168716080042
:100196008312031387110716871207170130AB0066
:0601A6000030AC0008006F
:1001AC008312031387150712871607130230AB004F
:0601BC000030AC00080059
:1001C200831203138715071707168712BE3083168B
:0E01D200BB004820BE308316BB008920080009
:1001E000831203138715071707128716BE3083166D
:0E01F000BB004820BE308316BB0089200800EB
:1001FE0083160313A001A101A00A0319A10A8320EB
:10020E008312871F0B291E298030173AF000803089
:10021E00831621067002031D16292008703C031850
:10022E001D29FF30F000FF30F1000800032983166E
:10023E00A001A101A00A0319A10A83208312871B22
:10024E002B29F001F101080083168030173AF000D7
:10025E00803021067002031D36292008703C0318D9
:10026E003D29FF30F000FF30F10008002129080081
:10027E008312031387150712871207170330AB007B
:06028E000030AC00080086
:10029400243083120313FD00FD0B4E2900000800D7
:1002A40083120313EB01EC01EB0A0319EC0A83201C
:1002B400081F5D296F298030173AF00080306C06E2
:1002C4007002031D67296B08703C03186E29FF3008
:1002D400F000FF30F10008005629EB01EC01EB0AB5
:1002E4000319EC0A8320081B7A29F001F1010800A4
:1002F4008030173AF00080306C067002031D8429A8
:100304006B08703C03188B29FF30F000FF30F100BC
:0603140008007129080039
:0E031A0083120313C301C401C501C60108000C
:100328008030831203132A06F00080307002031D08
:100338009F2900302902031CA229AD2980302A06F2
:10034800F00080307002031DAB2900302902031829
:04035800AD290800C3
:0E035C008316031332088A003108820008005D
:10036A003C30831203139F05C0309F008316370861
:10037A00F000F00D7010F00D7010700883129F04D9
:10038A0083169F1783121F144A219F149F1CCF297B
:10039A000000CB291F101E08F100F00183161E0869
:0803AA00F0040030F10408002A
:1003B200B43083160313BB004820B4308316BB004D
:1003C2008920881DF529081EF529C4200D30FB005F
:1003D200AF30FC00B630FD00FD0BED29FC0BED2922
:1003E200FB0BED290000102A081E032A8819032A94
:1003F200B4308316BB004820B4308316BB0089207A
:10040200D620102A081A102A881D102AB430831602
:10041200BB004820B4308316BB008920CB200800E3
:1004220083160313B701B801B901BA01BE30BB008C
:100432004820BE308316BB0089208030F000803017
:1004420046067002031D272A4508963C031C352ADE
:100452008030F000803044067002031D322A4308C7
:10046200963C031C352A362A8D213F2180304606D0
:10047200F000803044067002031D412A4308450201
:10048200031C642A43084502F1004408031C013E90
:100492004602F20080307206F00080307002031DC6
:1004A200542A05307102031C632AF020803046066C
:1004B200F000803044067002031D612A43084502A1
:1004C2000318562A842A45084302F1004608031CF1
:1004D200013E4402F20080307206F0008030700269
:1004E200031D752A05307102031C842AE120803025
:1004F2004406F000803046067002031D822A450839
:0805020043020318772A0800E8
:10050A0083120313F1010818F10A7108F400F501C6
:10051A00F40DF50D7410F40DF50D7410F30188182F
:10052A00F30A7308F000F101F00DF10D7010700874
:10053A007407F20075080318013E7107F300F00111
:10054A000819F00A0030F1007208F007730803185E
:06055A00013EF10708005C
:100560008312031306131330FD00FD0BB52A0000A0
:10057000000006171330FD00FD0BBC2A0000000030
:100580000613FF20831203137008ED007108EE00BC
:100590008230FC00DD30FD00FD0BCC2AFC0BCC2AA8
:1005A000000000006D08F0006E08F100F10CF00C86
:0805B000F113711BF1170800A3
:1005B8008312031386131330FD00FD0BE12A00009C
:1005C800000086171330FD00FD0BE82A000000002C
:1005D800861352217008ED007108EE008230FC008D
:1005E800DD30FD00FD0BF62AFC0BF62A00000000AA
:1005F8006D08F0006E08F100F10CF00CF113711B9E
:04060800F1170800DE
:10060C00BE3083160313BB004820BE308316BB00DC
:10061C008920942100304206031D162B0030410620
:10062C00031D872BB022DC2280306C06F00080305A
:10063C007002031D232BC8306B02031C322B80303D
:10064C0083162106F00080307002031D2F2BC8305A
:10065C002002031C322B852BC420B4308316BB0024
:10066C004820B4308316BB008920BF0A0319C00A86
:10067C0000302A06031D442B003029060319602B79
:10068C008030F00080302A067002031D4F2B2908A1
:10069C00003C0318532BD6205F2B80302A06F00029
:1006AC0080307002031D5C2B0030290203185F2B75
:1006BC00CB203E2BC4200D30FB00AF30FC00B630FD
:1006CC00FD00FD0B672BFC0B672BFB0B672B000056
:1006DC00852280307106F20080307202031D782B67
:1006EC0004307002031C7F2B0130C1000030C200AB
:1006FC00832B0230C1000030C2008D21862B1122C9
:10070C00212D00304206031D8D2B01304106031DA7
:10071C00172CB4308316BB004820B4308316BB00B2
:10072C008920D620B022DC228030013AF0008030C3
:10073C006C067002031DA42B6B082C3C0318BE2BFB
:10074C008030013AF0008030831621067002031DC0
:10075C00B12B20082C3C0318BE2BC4200130B9004F
:10076C000030BA000330C1000030C200B101B20148
:10077C0083128030F000803046067002031DC82BB7
:10078C0045080F3C0318162C00304206031DD02BD5
:10079C00033041060319162CB10A0319B20A803032
:1007AC00F000803032067002031DDE2B3108023C53
:1007BC000318E52B0430C1000030C200E92B0230D5
:1007CC00C1000030C2008D21C4200D30FB00AF30C1
:1007DC00FC00B630FD00FD0BF12BFC0BF12BFB0BE1
:1007EC00F12B000080304606F00080307002031DB3
:1007FC00012C0F3045020318062CCB209421F82B2A
:10080C00C4200D30FB00AF30FC00B630FD00FD0BFA
:10081C000D2CFC0B0D2CFB0B0D2C00008D21C42082
:10082C00212D00304206031D1D2C02304106031DF4
:10083C00A42CB4308316BB004820B4308316BB0004
:10084C008920CB20B022DC228030013AF0008030AD
:10085C006C067002031D342C6B082C3C03184C2CBA
:10086C008030013AF0008030831621067002031D9F
:10087C00412C20082C3C03184C2CC420B901BA0183
:10088C000330C1000030C200B101B20183128030CC
:10089C00F000803046067002031D562C45080F3CB4
:1008AC000318A32C00304206031D5E2C03304106B6
:1008BC000319A32CB10A0319B20A8030F00080305E
:1008CC0032067002031D6C2C3108023C0318732C89
:1008DC000430C1000030C200772C0130C100003060
:1008EC00C2008D21C4200D30FB00AF30FC00B630AF
:1008FC00FD00FD0B7F2CFC0B7F2CFB0B7F2C0000D9
:10090C0080304606F00080307002031D8F2C0F30B3
:10091C0045020318942CD6209421862C8D21C420BA
:10092C000D30FB00AF30FC00B630FD00FD0B9C2CF5
:10093C00FC0B9C2CFB0B9C2C0000212D0030420648
:10094C00031DAA2C03304106031DC02C8030F0007F
:10095C00803040067002031DB52C3F08043C031880
:10096C00BD2CC420D921A901AA01BF01C001C1011C
:10097C00C201212D00304206031DC62C0430410655
:10098C00031DEB2CCB20B022DC228030013AF0008E
:10099C0080306C067002031DD52C6B082C3C0318A0
:1009AC00EA2C8030013AF000803083162106700268
:1009BC00031DE22C20082C3C0318EA2CC420053023
:1009CC00C1000030C2008D21212D8312003042065F
:1009DC00031DF22C05304106031D212D1122B022DE
:1009EC00DC2280306C06F00080307002031D002D7C
:1009FC00C8306B02031C192D80306C06F00080305F
:100A0C007002031D0B2DC8306B02031C192D803096
:100A1C00F000803046067002031D162D45083C3C44
:100A2C00031C192D212DC420D921A901AA01BF0114
:080A3C00C001C101C201080064
:100A4400FF3083120313AF00B001EB30B300B401E5
:0E0A5400FA30B700B801E630B500B601080070
:100A6200831203134908F0004A08F100F00DF10D5A
:100A7200701070084707F30048080318013E710719
:100A8200F4004B08F0004C08F100F00DF10D70106D
:100A9200F00DF10D70107008F30771080318013E94
:100AA200F4070330F2004D08F0004E08F10072081E
:100AB2000319602DF00DF10D7010FF3E592D7008D5
:100AC200F30771080318013EF4070430F2004F08DF
:100AD200F0005008F10072080319742DF00DF10DA9
:100AE2007010FF3E6D2D7008F30771080318013E68
:100AF200F4070530F2005108F0005208F1007208C4
:100B02000319882DF00DF10D7010FF3E812D700834
:100B1200F30771080318013EF4070630F200530888
:100B2200F0005408F100720803199C2DF00DF10D2C
:100B32007010FF3E952D7008F30771080318013EEF
:100B4200F4070730F2005508F0005608F100720869
:100B52000319B02DF00DF10D7010FF3EA92D700894
:100B6200F30771080318013EF4075708F100F0017A
:0E0B72007308F00774080318013EF10708002D
:100B800083120313A501A601AD01AE018316B701BF
:100B9000B521710883123C02031DD02D70083B0261
:100BA0000318DE2D31308316A20001308312D900E4
:100BB0000030DA00AD0A0319AE0AE42D3030831696
:100BC000A2008312D901DA0101308316B700B521E2
:100BD000710883123C02031DEF2D70083B020318BD
:100BE000FD2D31308316A30001308312DB0000306D
:100BF000DC00AD0A0319AE0A032E30308316A300C1
:100C00008312DB01DC0102308316B700B5217108C5
:100C100083123C02031D0E2E70083B0203181C2E8B
:100C200031308316A40001308312DD000030DE0075
:100C3000AD0A0319AE0A222E30308316A4008312A7
:100C4000DD01DE0103308316B700B5217108831280
:100C50003C02031D2D2E70083B0203183B2E313041
:100C60008316A50001308312DF000030E000AD0ADA
:100C70000319AE0A412E30308316A5008312DF011E
:100C8000E00104308316B700B521710883123C02DD
:100C9000031D4C2E70083B0203185A2E3130831668
:100CA000A60001308312E1000030E200AD0A031912
:100CB000AE0A602E30308316A6008312E101E201F5
:100CC00005308316B700B521710883123E02031D5B
:100CD0006B2E70083D020318792E31308316A70061
:100CE00001308312C7000030C800A50A0319A60A04
:100CF0007F2E30308316A7008312C701C80106304B
:100D00008316B700B521710883123E02031D8A2E97
:100D100070083D020318982E31308316A800013068
:100D20008312C9000030CA00A50A0319A60A9E2E24
:100D300030308316A8008312C901CA010730831618
:100D4000B700B521710883123E02031DA92E700859
:100D50003D020318B72E31308316A90001308312EB
:100D6000CB000030CC00A50A0319A60ABD2E3030F6
:100D70008316A9008312CB01CC0108308316B7007B
:100D8000B521710883123E02031DC82E70083D0272
:100D90000318D62E31308316AA0001308312CD00FD
:100DA0000030CE00A50A0319A60ADC2E30308316C7
:100DB000AA008312CD01CE0109308316B700B521F8
:100DC000710883123E02031DE72E70083D020318CE
:100DD000F52E31308316AB0001308312CF00003086
:100DE000D000A50A0319A60AFB2E30308316AB00EB
:100DF0008312CF01D0010A308316B700B5217108E4
:100E000083123E02031D062F70083D020318142FA3
:100E100031308316AC0001308312D1000030D20093
:100E2000A50A0319A60A1A2F30308316AC008312C4
:100E3000D101D2010B308316B700B521710883129E
:100E40003E02031D252F70083D020318332F313059
:100E50008316AD0001308312D3000030D400A50A00
:100E60000319A60A392F30308316AD008312D3013F
:100E7000D4010C308316B700B521710883123E02ED
:100E8000031D442F70083D020318522F3130831682
:100E9000AE0001308312D5000030D600A50A031938
:100EA000A60A582F30308316AE008312D501D60122
:100EB0000D308316B700B521710883123E02031D61
:100EC000632F70083D020318712F31308316AF0075
:100ED00001308312D7000030D800A50A0319A60AF2
:100EE000772F30308316AF008312D701D801080066
:100EF000831603138710831212150C309D0408000B
:0C0F0000831203139B011D129D120800B8
:0C0F0C00831203139501171297120800BE
:100F1800AE218A110A128000840AB10A0319B20AA2
:080F2800F003031D8C2F0800EB
:100F3000831603130711831212150C30970408004F
:0E0F40008530831603138100A0308B0008005B
:100F4E0083120313071CAD2FA301A4010718D62F7C
:100F5E0000302406031DB52F00302306031DD62FA7
:100F6E000130A3000030A400C30A0319C40A0030E4
:100F7E002C06031DC42F01302B06031DCA2FA90AF0
:100F8E000319AA0AD62F00302C06031DD02F0230CB
:100F9E002B06031DD62F0130A902031CAA03051E22
:100FAE00DA2FA101A201051AEB2F00302206031D34
:100FBE00E22F00302106031DEB2F0130A10000307F
:0A0FCE00A200C50A0319C60A0800B4
:100FD80021308400263083120313F0006830831612
:0A0FE800B1000830B2008C270800A9
:101000008A11EC278A15C0308316031388008130BB
:10101000870006309F0005168A11A0278A1506133F
:101020008613831212149210F930831692008A11DB
:1010300086278A1512149210F930831692008A11AD
:1010400080278A15C8308316BB008A1148208A156C
:10105000C8308316BB008A1189208A158A11982707
:101060008A158A1178278A158316051607148312A4
:101070008817831688170814881408158A118D217B
:101080008A158A113F218A158A11C0258A158A116D
:1010900031258A157008A7007108A8000030710674
:1010A000031D542800307006031941288A11222597
:1010B0008A158A1106238A15A63083120313FD00B0
:0A10C000FD0B602800005928642889
:0410D00000340034B4
:0410D40000340034B0
:0410D80000340034AC
:0410DC0000340034A8
:0410E00000340034A4
:0410E40000340034A0
:0410E800003400349C
:0410EC00FF34003499
:0410F0000034003494
:0410F400E1340034AF
:0410F800E6340034A6
:0410FC00FA3400348E
:041100000034003483
:04110400C8340034B7
:041108003C3400343F
:04110C000034003477
:041110000034003473
:04111400003400346F
:04111800003400346B
:04400E00F22F000786
:00000001FF
