:02000000BA2E16
:10000800FF00030E8301E8000A08E7008A01700870
:10001800A0000B1D112875260B112008F000670899
:0C0028008A00680E8300FF0E7F0E0900A6
:1000340083120313FB01FA01F9018030F800F10C7B
:10004400F00C031C2E287408F90775080318750FA3
:10005400FA070318FB0A0310F01F36287408FA077E
:1000640075080318750FFB07FB0CFA0CF90CF80C58
:10007400031C21287B08F3007A08F2007908F100B8
:060084007808F0000800FE
:10008A00831603131208013EF000F1010318F10A66
:10009A003008F400F5011A200630F2007008F40066
:1000AA007108F500720803195F28F50CF40CF513B2
:1000BA00FF3E58280430F1007408F0007108031953
:1000CA006A28F00D7010FF3E642883120313303043
:1000DA007005F3007408F0007508F100F10CF00CDB
:1000EA00F113F10CF00CF113700895000F3097051D
:0600FA00730897040800E2
:10010000243083120313FD00FD0B84280000080037
:10011000831603131208013EF000F1010318F10ADF
:100120003008F400F5011A200630F2007008F400DF
:100130007108F50072080319A228F50CF40CF513E8
:10014000FF3E9B280430F1007408F0007108031989
:10015000AD28F00D7010FF3EA72883120313303036
:100160007005F3007408F0007508F100F10CF00C54
:10017000F113F10CF00CF11370089B000F309D058A
:0601800073089D04080055
:10018600831203138715071707128716BE308316C7
:0E019600B0004520BE308316B000882008005F
:1001A400831203138715071707168712BE308316A9
:0E01B400B0004520BE308316B0008820080041
:1001C2003C30831203139F05C0309F006F08F0007C
:1001D200F00D7010F00D701070089F0483169F17B9
:1001E20083121F1480209F149F1CF9280000F528F9
:1001F2001F101E08F100F00183161E08F0040030E3
:04020200F1040800FB
:100206008312031387150712871207170330A500F9
:060216000030A600080004
:0E021C0083120313B501B601AF01B001080053
:0E022A008312031342088A0041088200080074
:1002380083120313B101B201BF01C001EF01E12034
:10024800710883123E02031D2B2970083D02031812
:10025800392931308316A00001308312D5000030CF
:10026800D600BF0A0319C00A3F2930308316A00000
:100278008312D501D6010130EF00E1207108831205
:100288003E02031D492970083D02031857293130E1
:100298008316A10001308312D7000030D800BF0AAE
:1002A8000319C00A5D2930308316A1008312D701D3
:1002B800D8010230EF00E120710883123E02031DCD
:1002C800672970083D020318752931308316A2008A
:1002D80001308312D9000030DA00BF0A0319C00ABE
:1002E8007B2930308316A2008312D901DA0103304A
:1002F800EF00E120710883123E02031D8529700872
:100308003D020318932931308316A300013083126C
:10031800DB000030DC00BF0A0319C00A992930301D
:100328008316A3008312DB01DC010430EF00E12017
:10033800710883123E02031DA32970083D020318A9
:10034800B12931308316A40001308312DD0000305A
:10035800DE00BF0A0319C00AB72930308316A4008B
:100368008312DD01DE010530EF00E1207108831200
:100378003C02031DC12970083B020318CF29313004
:100388008316A50001308312C3000030C400B10AEF
:100398000319B20AD52930308316A5008312C30188
:1003A800C4010630EF00E120710883123C02031DEE
:1003B800DF2970083B020318ED2931308316A600A7
:1003C80001308312C5000030C600B10A0319B20A11
:1003D800F32930308316A6008312C501C601073001
:1003E800EF00E120710883123C02031DFD2970080B
:1003F8003B0203180B2A31308316A7000130831201
:10040800C7000030C800B10A0319B20A112A3030F7
:100418008316A7008312C701C8010830EF00E12046
:10042800710883123C02031D1B2A70083B02031843
:10043800292A31308316A80001308312C900003000
:10044800CA00B10A0319B20A2F2A30308316A8004D
:100458008312C901CA010930EF00E1207108831233
:100468003C02031D392A70083B020318472A313021
:100478008316A90001308312CB000030CC00B10AEA
:100488000319B20A4D2A30308316A9008312CB0112
:10049800CC010A30EF00E120710883123C02031DF1
:1004A800572A70083B020318652A31308316AA00C0
:1004B80001308312CD000030CE00B10A0319B20A10
:1004C8006B2A30308316AA008312CD01CE010B307F
:1004D800EF00E120710883123C02031D752A7008A1
:1004E8003B020318832A31308316AB000130831294
:1004F800CF000030D000B10A0319B20A892A30307F
:100508008316AB008312CF01D0010C30EF00E1203D
:10051800710883123C02031D932A70083B020318DA
:10052800A12A31308316AC0001308312D10000308B
:10053800D200B10A0319B20AA72A30308316AC00D8
:100548008312D101D2010D30EF00E120710883122E
:100558003C02031DB12A70083B020318BF2A313040
:100568008316AD0001308312D3000030D400B10AE5
:100578000319B20AC52A30308316AD008312D3019D
:04058800D401080092
:10058C008312031387150713071287162308831684
:0E059C00B000452023088316B0008820080018
:0E05AA0083120313871507170716871608001C
:1005B80083120313ED01EE018316AE01AF01BE30C5
:1005C800B0004520BE308316B00088208030F0008F
:1005D800803030067002031DF32A2F08963C031C56
:1005E800012B8030F000803036067002031DFE2A91
:1005F8003508963C031C012B022B0E210321803069
:100608003006F000803036067002031D0D2B3508C9
:100618002F02031C302B35082F02F1003608031C6B
:10062800013E3002F20080307206F0008030700225
:10063800031D202B05307102031C2F2BC320803093
:100648003006F000803036067002031D2D2B350869
:100658002F020318222B502B2F083502F1003008E7
:10066800031C013E3602F20080307206F000803032
:100678007002031D412B05307102031C502BD22040
:1006880080303606F000803030067002031D4E2B95
:0A0698002F0835020318432B080059
:1006A200831203134508F0004608F100F00DF10D26
:1006B200701070084307F30044080318013E7107E5
:1006C200F4004708F0004808F100F00DF10D701039
:1006D200F00DF10D70107008F30771080318013E58
:1006E200F4070330F2004908F0004A08F1007208EA
:1006F2000319802BF00DF10D7010FF3E792B70085D
:10070200F30771080318013EF4070430F2004B08A6
:10071200F0004C08F10072080319942BF00DF10D52
:100722007010FF3E8D2B7008F30771080318013E0D
:10073200F4070530F2004D08F0004E08F10072088F
:100742000319A82BF00DF10D7010FF3EA12B7008BC
:10075200F30771080318013EF4070630F2004F0850
:10076200F0005008F10072080319BC2BF00DF10DD6
:100772007010FF3EB52B7008F30771080318013E95
:10078200F4070730F2005108F0005208F100720835
:100792000319D02BF00DF10D7010FF3EC92B70081C
:1007A200F30771080318013EF4075308F100F00142
:0E07B2007308F00774080318013EF1070800F1
:1007C000831203138711071707168712230883164E
:0E07D000B000452023088316B00088200800E2
:1007DE0083120313E901EA01BE308316B0004520EF
:1007EE00BE308316B00088201C2151237008AB0048
:1007FE007108AC00DC2200302C06031D082C0030E2
:10080E002B06031DFB2B00302C06031D102C003075
:10081E002B06031D362E1C2151237008AB007108C8
:10082E00AC000E218030F000803030067002031DC7
:10083E00222C2F08143C031C412C00306A06031D89
:10084E002A2C00306906031D412C1C2151237008EF
:10085E00AB007108AC00E02300302C06031D392CD0
:10086E0000302B060319402C0130E9000030EA005D
:10087E00412C192C00306A06031D472C00306906E6
:10088E00031D582CD5223330FB00BB30FC00DF306B
:10089E00FD00FD0B502CFC0B502CFB0B502C0000C4
:1008AE0000000E218030F000803030067002031DF3
:1008BE00622C2F083C3C031C812C00306A06031D61
:1008CE006A2C00306906031D812C1C2151237008EF
:1008DE00AB007108AC00DC2200302C06031D792C15
:1008EE0000302B060319802C0130E9000030EA009D
:1008FE00812C592C00306A06031D872C00306906A6
:10090E00031D982CD5223330FB00BB30FC00DF30AA
:10091E00FD00FD0B902CFC0B902CFB0B902C000083
:10092E0000000E218030F000803030067002031D72
:10093E00A22C2F080F3C031CC12C00306A06031D8D
:10094E00AA2C00306906031DC12C1C2151237008EE
:10095E00AB007108AC00C62200302C06031DB92C6A
:10096E0000302B060319C02C0130E9000030EA00DC
:10097E00C12C992C00306A06031DC72C0030690665
:10098E00031DD82CD5223330FB00BB30FC00DF30EA
:10099E00FD00FD0BD02CFC0BD02CFB0BD02C000043
:1009AE0000000E218030F000803030067002031DF2
:1009BE00E22C2F08103C031C012D00306A06031D8B
:1009CE00EA2C00306906031D012D1C2151237008ED
:1009DE00AB007108AC00DC2200302C06031DF92C94
:1009EE0000302B060319002D0130E9000030EA001B
:1009FE00012DD92C00306A06031D072D0030690623
:100A0E00031D182DD5223330FB00BB30FC00DF3028
:100A1E00FD00FD0B102DFC0B102DFB0B102D0000FF
:100A2E0000000E218030F000803030067002031D71
:100A3E00222D2F080F3C031C412D00306A06031D8A
:100A4E002A2D00306906031D412D1C2151237008EB
:100A5E00AB007108AC00C62200302C06031D392DE8
:100A6E0000302B060319402D0130E9000030EA005A
:100A7E00412D192D00306A06031D472D00306906E1
:100A8E00031D582DD5223330FB00BB30FC00DF3068
:100A9E00FD00FD0B502DFC0B502DFB0B502D0000BF
:100AAE0000000E218030F000803030067002031DF1
:100ABE00622D2F083C3C031C812D00306A06031D5D
:100ACE006A2D00306906031D812D1C2151237008EB
:100ADE00AB007108AC00DC2200302C06031D792D12
:100AEE0000302B060319802D0130E9000030EA009A
:100AFE00812D592D00306A06031D872D00306906A1
:100B0E00031D982DD5223330FB00BB30FC00DF30A7
:100B1E00FD00FD0B902DFC0B902DFB0B902D00007E
:100B2E0000000E218030F000803030067002031D70
:100B3E00A22D2F08143C031CC12D00306A06031D84
:100B4E00AA2D00306906031DC12D1C2151237008EA
:100B5E00AB007108AC00E02300302C06031DB92D4C
:100B6E0000302B060319C02D0130E9000030EA00D9
:100B7E00C12D992D00306A06031DC72D0030690660
:100B8E00031DD82DD5223330FB00BB30FC00DF30E7
:100B9E00FD00FD0BD02DFC0BD02DFB0BD02D00003E
:100BAE0000000E218030F000803030067002031DF0
:100BBE00E22D2F08103C031C102E00306A06031D78
:100BCE00EA2D00306906031D102E1C2151237008DA
:100BDE00AB007108AC00DC2200302C06031DF92D91
:100BEE0000302B0603190F2ED5223330FB00BB30FD
:100BFE00FC00DF30FD00FD0B022EFC0B022EFB0B6A
:100C0E00022E000000000130E9000030EA00102E34
:100C1E00D92D00306A06031D162E00306906031DFD
:100C2E00272ED5223330FB00BB30FC00DF30FD0019
:100C3E00FD0B1F2EFC0B1F2EFB0B1F2E00000000AA
:100C4E0000306A06031D2D2E01306906031D352E58
:100C5E00D5220130AD000030AE00362E0A2C080031
:100C6E00D23083120313A900AA01BE30A300A4013F
:0E0C7E00CD30A100A201C330A700A8010800DC
:100C8C00831603138710831212150C309D04080071
:100C9C00831603130711831212150C3097040800E6
:0E0CAC008530831603138100A0308B000800F2
:0C0CBA0083120313950117129712080013
:0C0CC600831203139B011D129D120800F5
:100CD20015218A110A128000840AC10A0319C20A64
:080CE200F003031D692E080058
:100CEA0083120313071C7B2EB301B4010718A42E29
:100CFA0000303406031D832E00303306031DA42E54
:100D0A000130B3000030B400B50A0319B60A003046
:100D1A002606031D922E01302506031D982EB90AB8
:100D2A000319BA0AA42E00302606031D9E2E02308D
:100D3A002506031DA42E0130B902031CBA03051EA1
:100D4A00A82EB701B801051AB92E00303806031DBE
:100D5A00B02E00303706031DB92E0130B70000301F
:0A0D6A00B800AF0A0319B00A080030
:100D7400FA3083120313A100A201E130A300A401FD
:100D8400A501A601E630A700A801FF30A900AA0129
:100D9400AB01AC01AD01AE01AF01B001B101B201D3
:100DA400B301B401B501B601B701B801B901BA0183
:100DB4003C30BB00BC01C830BD00BE01BF01C00156
:100DC400C030831688008130870006309F000516E6
:100DD400562606138613831212149210F9308316C2
:100DE40092005D2612149210F93083169200632645
:100DF400C8308316B0004520C8308316B000882060
:100E04004E26462683160516071483128817831662
:100E140088170814881408150E213726EF23102F7D
:020E2400122F8B
:04400E00F22F000786
:00000001FF
