:02000000B62D1B
:10000800FF00030E8301E4000A08E3008A01700878
:10001800A0000B1D112871250B112008F0006308A2
:0C0028008A00640E8300FF0E7F0E0900AA
:10003400243083120313FD00FD0B1E28000008006A
:1000440083120313FB01FA01F9018030F800F10C6B
:10005400F00C031C36287408F90775080318750F8B
:10006400FA070318FB0A0310F01F3E287408FA0766
:1000740075080318750FFB07FB0CFA0CF90CF80C48
:10008400031C29287B08F3007A08F2007908F100A0
:060094007808F0000800EE
:10009A00831603131208013EF000F1010318F10A56
:1000AA0083126D08F400F50122200630F200700870
:1000BA00F4007108F500720803196828F50CF40CAD
:1000CA00F513FF3E61280430F1007408F00071084E
:1000DA0003197328F00D7010FF3E6D288312031365
:1000EA0030307005F3007408F0007508F100F10C67
:1000FA00F00CF113F10CF00CF113700895000F30AD
:08010A00970573089704080033
:100112003C30831203139F05C0309F006D08F0002E
:10012200F00D7010F00D701070089F0483169F1769
:1001320083121F141A209F149F1CA12800009D28BF
:100142001F101E08F100F00183161E08F004003093
:04015200F1040800AC
:10015600831603131208013EF000F1010318F10A99
:1001660083126D08F400F50122200630F2007008B3
:10017600F4007108F50072080319C628F50CF40C92
:10018600F513FF3EBF280430F1007408F000710833
:100196000319D128F00D7010FF3ECB2883120313EC
:1001A60030307005F3007408F0007508F100F10CAA
:1001B600F00CF113F10CF00CF11370089B000F30EA
:0801C6009D0573089D0408006B
:1001CE008312031387150717071287162F08ED00E2
:0A01DE004D202F08ED00AB200800B3
:1001E8008312031387150717071687122F08ED00C8
:0A01F8004D202F08ED00AB20080099
:0E020200831203133E088A003D0882000800A4
:0E0210008312031387150717071687160800B9
:10021E0083120313A701A801A501A601ED018920F0
:10022E00710883123802031D1E2970083702031845
:10023E002C2931308316A00001308312D1000030FA
:10024E00D200A50A0319A60A322930308316A0005F
:10025E008312D101D2010130ED0089207108831281
:10026E003802031D3C297008370203184A29313021
:10027E008316A10001308312D3000030D400A50AEA
:10028E000319A60A502930308316A1008312D30118
:10029E00D4010230ED008920710883123802031D4B
:1002AE005A29700837020318682931308316A200C4
:1002BE0001308312D5000030D600A50A0319A60A14
:1002CE006E2930308316A2008312D501D601033079
:1002DE00ED008920710883123802031D78297008F9
:1002EE0037020318862931308316A300013083129A
:1002FE00D7000030D800A50A0319A60A8C29303081
:10030E008316A3008312D701D8010430ED00892093
:10031E00710883123802031D9629700837020318DC
:10032E00A42931308316A40001308312D900003085
:10033E00DA00A50A0319A60AAA2930308316A400EA
:10034E008312D901DA010530ED008920710883127C
:10035E003C02031DB42970083B020318C229313038
:10036E008316A50001308312BF000030C000A70A1B
:10037E000319A80AC82930308316A5008312BF01BD
:10038E00C0010630ED008920710883123C02031D66
:10039E00D22970083B020318E02931308316A600DB
:1003AE0001308312C1000030C200A70A0319A80A47
:1003BE00E62930308316A6008312C101C201073030
:1003CE00ED008920710883123C02031DF02970088C
:1003DE003B020318FE2931308316A7000130831229
:1003EE00C3000030C400A70A0319A80A042A30303B
:1003FE008316A7008312C301C4010830ED008920C3
:10040E00710883123C02031D0E2A70083B0203186A
:10041E001C2A31308316A80001308312C50000302B
:10042E00C600A70A0319A80A222A30308316A8008C
:10043E008312C501C6010930ED00892071088312AF
:10044E003C02031D2C2A70083B0203183A2A313055
:10045E008316A90001308312C7000030C800A70A16
:10046E000319A80A402A30308316A9008312C70147
:10047E00C8010A30ED008920710883123C02031D69
:10048E004A2A70083B020318582A31308316AA00F4
:10049E0001308312C9000030CA00A70A0319A80A46
:1004AE005E2A30308316AA008312C901CA010B30AE
:1004BE00ED008920710883123C02031D682A700822
:1004CE003B020318762A31308316AB0001308312BB
:1004DE00CB000030CC00A70A0319A80A7C2A3030C2
:1004EE008316AB008312CB01CC010C30ED008920BA
:1004FE00710883123C02031D862A70083B02031802
:10050E00942A31308316AC0001308312CD000030B6
:10051E00CE00A70A0319A80A9A2A30308316AC0017
:10052E008312CD01CE010D30ED00892071088312AA
:10053E003C02031DA42A70083B020318B22A313074
:10054E008316AD0001308312CF000030D000A70A11
:10055E000319A80AB82A30308316AD008312CF01D2
:04056E00D0010800B0
:100572008312031387150717071287122F08ED003E
:0A0582004D203508ED00AB20080005
:10058C008312031387150713071287163508ED001E
:0A059C004D203508ED00AB200800EB
:1005A6008312031387150712871207173908ED0000
:0A05B6004D203908ED00AB200800CD
:1005C0008312031387110717071687123508ED00EA
:0A05D0004D203508ED00AB200800B7
:1005DA008312031387150717071287123508ED00D0
:0A05EA004D202F08ED00AB200800A3
:1005F400831203134108F0004208F100F00DF10DDD
:10060400701070083F07F30040080318013E71079B
:10061400F4004308F0004408F100F00DF10D7010EF
:10062400F00DF10D70107008F30771080318013E06
:10063400F4070330F2004508F0004608F1007208A0
:100644000319292BF00DF10D7010FF3E222B7008B9
:10065400F30771080318013EF4070430F200470859
:10066400F0004808F100720803193D2BF00DF10D5C
:100674007010FF3E362B7008F30771080318013E13
:10068400F4070530F2004908F0004A08F100720846
:100694000319512BF00DF10D7010FF3E4A2B700819
:1006A400F30771080318013EF4070630F2004B0803
:1006B400F0004C08F10072080319652BF00DF10DE0
:1006C4007010FF3E5E2B7008F30771080318013E9B
:1006D400F4070730F2004D08F0004E08F1007208EC
:1006E4000319792BF00DF10D7010FF3E722B700879
:1006F400F30771080318013EF4074F08F100F001F5
:0E0704007308F00774080318013EF10708009F
:0E07120083120313A301A401A101A201080098
:1007200083120313E501E601E701E801E901EA01AB
:10073000EB01EC010F21FA227008AB007108AC004C
:1007400000307106031DA62B383070060319B92B33
:1007500000302C06031DAE2B30302B060319B92BAD
:1007600000302C06031DB62B18302B060319B92BAD
:10077000BB2BD322362D00302C06031DC12B1C3081
:100780002B060319CC2B00302C06031DC92B0C3073
:100790002B060319CC2BCE2BED22362D00302C0648
:1007A000031DD42B70302B060319DF2B00302C06D1
:1007B000031DDC2B60302B060319DF2BE12BB92244
:1007C000362D00302C06031DE72B0E302B060319A7
:1007D000F22B00302C06031DEF2B06302B060319DD
:1007E000F22BF42BE720362D00302C06031DFA2BBC
:1007F000E0302B060319052C00302C06031D022CBB
:10080000C0302B060319052C072CF420362D0030A0
:100810002C06031D0D2C07302B060319202C00304D
:100820002C06031D152C03302B060319202C003039
:100830002C06031D1D2C01302B060319202C222C05
:10084000C622362D2C08013A031D282CC0302B0659
:1008500003193B2C2C08013A031D302C80302B0649
:1008600003193B2C2C08013A031D382C00302B06B1
:1008700003193B2C3D2CE022362D00304006031D91
:10088000432C01303F060319562C00304206031D4D
:100890004B2C013041060319562C00304406031D31
:1008A000532C013043060319562C712C00304C0692
:1008B000031D5C2C01304B0603196F2C00304E06D3
:1008C000031D642C01304D0603196F2C00305006B7
:1008D000031D6C2C01304F0603196F2C712CE7207F
:1008E000362D00304006031D772C01303F060319DA
:1008F0008A2C00304206031D7F2C0130410603196B
:100900008A2C00304406031D872C0130430603194E
:100910008A2CA42C00304C06031D902C00304B0672
:10092000031DA42C00304E06031D982C00304D06EC
:10093000031DA42C00305006031DA02C00304F06D0
:10094000031DA42CC622362D00305006031DAA2CF0
:1009500001304F060319BD2C00304E06031DB22C8A
:1009600001304D060319BD2C00304C06031DBA2C76
:1009700001304B060319BD2CD72C00304006031D57
:10098000C32C00303F06031DD72C00304206031D48
:10099000CB2C00304106031DD72C00304406031D2C
:1009A000D32C00304306031DD72CE022362D003017
:1009B0004606031DDD2C013045060319F02C0030DE
:1009C0004806031DE52C013047060319F02C0030C2
:1009D0004A06031DED2C013049060319F02C022DA7
:1009E00000304006031DF62C01303F06031D022D8A
:1009F00000304206031DFE2C01304106031D022D6E
:100A0000C622362D00304606031D082D013045064E
:100A100003191B2D00304806031D102D0130470619
:100A200003191B2D00304A06031D182D01304906FD
:100A300003191B2D2D2D00305006031D212D0130D3
:100A40004F06031D2D2D00304E06031D292D0130AC
:100A50004D06031D2D2DE022362D2C08013A031DD5
:0E0A6000332DFF302B06031D362D0821080014
:100A6E00831603138710831212150C309D04080091
:100A7E00831603130711831212150C309704080006
:100A8E008312031387150712871207170330A90065
:060A9E000030AA00080070
:0C0AA400831203139B011D129D12080019
:0C0AB0008312031395011712971208001F
:0E0ABC008530831603138100A0308B000800E4
:100ACA0001218A110A128000840ABD0A0319BE0A8A
:080ADA00F003031D652D080067
:100AE20083120313071C772DAD01AE010718A02D49
:100AF20000302E06031D7F2D00302D06031DA02D74
:100B02000130AD000030AE00A30A0319A40A003080
:100B12002A06031D8E2D01302906031D942DB30ACA
:100B22000319B40AA02D00302A06031D9A2D0230A3
:100B32002906031DA02D0130B302031CB403051EB8
:100B4200A42DB101B201051AB52D00303206031DE4
:100B5200AC2D00303106031DB52D0130B10000303F
:0A0B6200B200A10A0319A20A08005C
:100B6C0083120313A101A201A301A401A501A601F3
:100B7C00A701A801A901AA01AB01AC01AD01AE010D
:100B8C00E130AF00B001B101B201B301B401C83022
:100B9C00B500B601C830B700B801E630B900BA01EB
:100BAC003C30BB00BC01C03083168800813087000C
:100BBC0006309F0005165E25061386138312121449
:100BCC009210F93083169200582512149210F930B5
:100BDC00831692005225C830ED004D20C830ED0030
:100BEC00AB203F253725831605160714831288176B
:100BFC008316881708148814081589234725902311
:040C0C00052E072E7C
:04400E00F22F000786
:00000001FF
