:02000000792A5B
:10000800FF00030E8301B0000A08B1008A017008DE
:10001800A0000B1D112834220B112008F000310814
:0C0028008A00300E8300FF0E7F0E0900DE
:1000340083120313FB01FA01F9018030F800F10C7B
:10004400F00C031C2E287408F90775080318750FA3
:10005400FA070318FB0A0310F01F36287408FA077E
:1000640075080318750FFB07FB0CFA0CF90CF80C58
:10007400031C21287B08F3007A08F2007908F100B8
:060084007808F0000800FE
:10008A00831603131208013EF000F1010318F10A66
:10009A0083123608F400F5011A200630F2007008BF
:1000AA00F4007108F500720803196028F50CF40CC5
:1000BA00F513FF3E59280430F1007408F000710866
:1000CA0003196B28F00D7010FF3E65288312031385
:1000DA0030307005F3007408F0007508F100F10C77
:1000EA00F00CF113F10CF00CF11370089B000F30B7
:0800FA009D0573089D04080038
:10010200831603131208013EF000F1010318F10AED
:1001120083123608F400F5011A200630F200700846
:10012200F4007108F500720803199C28F50CF40C10
:10013200F513FF3E95280430F1007408F0007108B1
:100142000319A728F00D7010FF3EA1288312031394
:1001520030307005F3007408F0007508F100F10CFE
:10016200F00CF113F10CF00CF113700895000F3044
:080172009705730897040800CB
:10017A00831203138715071707168712B430B600C0
:0A018A008120B430B60045200800C3
:10019400831203138715071707128716B430B600A6
:0A01A4008120B430B60045200800A9
:0C01AE000000000000000000000008003D
:1001BA008312031387150712871207170330A50046
:0601CA000030A600080051
:0E01D000831203132F088A002E0882000800F5
:0E01DE00533083120313FD00FD0BF3280800BD
:0E01EC0083120313A301A401A101A2010800C4
:1001FA00243083120313FC00B530FD00FD0B0329E4
:0A020A00FC0B0329000000000800AF
:0E0214008530831603138100A0308B00080094
:1002220083120313B201B301B401B5018030F000AF
:10023200803022067002031D20292108963C031CEF
:100242002E298030F000803024067002031D2B29F5
:100252002308963C031C2E292F29F620DD2080300E
:100262002206F000803024067002031D3A2923087A
:100272002102031C5D2923082102F1002408031C2A
:10028200013E2202F20080307206F00080307002DD
:10029200031D4D2905307102031C5C29CA208030E0
:1002A2002206F000803024067002031D5A2923081A
:1002B200210203184F297D2921082302F100220877
:1002C200031C013E2402F20080307206F0008030EE
:1002D2007002031D6E2905307102031C7D29BD20A9
:1002E20080302406F000803022067002031D7B2934
:0A02F20021082302031870290800F8
:0C02FC00831203139B011D129D120800C9
:0C030800831203139501171297120800CE
:10031400831603138710831212150C309D040800F2
:10032400E8208A110A128000840AAE0A0319AF0A6F
:08033400F003031D92290800EB
:10033C0083120313B21BA4298811A5298815321B1B
:10034C00A9290811AA290815B21AAE298810AF29B3
:10035C008814321AB3290810B42908142D18B82996
:10036C008816B92988120816D7200812B219C02984
:10037C008811C12988153219C5290811C6290815F3
:10038C00B218CA298810CB2988143218CF29081022
:10039C00D02908142D18D4298816D52988120816A6
:1003AC00D72008122D1CDC29FD20DD29EF200800A8
:1003BC00831603130711831212150C3097040800CF
:1003CC00831603130812881208108810081188115C
:1003DC008312081288128811081188100810FD2049
:1003EC00FD20FD20881408140816D7200812FD20C3
:1003FC000816D7200812FD200816D7200812FD2059
:10040C0008100816D7200812FD200816D72008124D
:10041C00881088150816D7200812FD20881108149A
:10042C000816D720081208100816D7200812FD202D
:10043C000816D720081208140816D7200812FD2019
:10044C0008100816D72008128815081588140814E7
:0C045C000816D7200812FD202D140800FF
:1004680083120313071C3A2AA701A8010718632A55
:1004780000302806031D422A00302706031D632A80
:100488000130A7000030A800A30A0319A40A00300D
:100498002606031D512A01302506031D572AAB0ADB
:1004A8000319AC0A632A00302606031D5D2A0230B0
:1004B8002506031D632A0130AB02031CAC03051E8D
:1004C800672AA901AA01051A782A00302A06031DFD
:1004D8006F2A00302906031D782A0130A900003050
:0A04E800AA00A10A0319A20A0800E5
:1004F20083120313A101A201A301A401A501A60174
:10050200A701A801A901AA01AB01AC01C030831661
:1005120088008130870006309F000516E6210130F1
:10052200B2009E210C30B2009E210A2106138613CE
:10053200831212149210F93083169200842112143D
:100542009210F930831692007E21BE30B6008120CF
:10055200BE30B6004520DE218A2183160516071417
:100562008312881783168817F6200A211121A630D4
:0C057200FD00FD0BBA2A0000B72ABE2ACB
:04400E00F22F000786
:00000001FF
