:020000009E2937
:10000800FF00030E8301B8000A08B7008A017008D0
:10001800A0000B1D11283A210B112008F000370809
:0C0028008A00380E8300FF0E7F0E0900D6
:1000340083120313FB01FA01F9018030F800F10C7B
:10004400F00C031C2E287408F90775080318750FA3
:10005400FA070318FB0A0310F01F36287408FA077E
:1000640075080318750FFB07FB0CFA0CF90CF80C58
:10007400031C21287B08F3007A08F2007908F100B8
:060084007808F0000800FE
:0E008A00831203138715071707168716080041
:100098008312031387110716871207170130AD0063
:0600A8000030AE0008006C
:1000AE008312031387150712871607130230AD004C
:0600BE000030AE00080056
:1000C400831603131208013EF000F1010318F10A2C
:1000D40083123D08F400F5011A200630F20070087E
:1000E400F4007108F500720803197D28F50CF40C6E
:1000F400F513FF3E76280430F1007408F00071080F
:1001040003198828F00D7010FF3E82288312031310
:1001140030307005F3007408F0007508F100F10C3C
:10012400F00CF113F10CF00CF113700895000F3082
:08013400970573089704080009
:0E013C008312031336088A003508820008007B
:10014A00831603131208013EF000F1010318F10AA5
:10015A0083123D08F400F5011A200630F2007008F7
:10016A00F4007108F50072080319C028F50CF40CA4
:10017A00F513FF3EB9280430F1007408F000710845
:10018A000319CB28F00D7010FF3EC5288312031304
:10019A0030307005F3007408F0007508F100F10CB6
:1001AA00F00CF113F10CF00CF11370089B000F30F6
:0801BA009D0573089D04080077
:1001C200831603138710831212150C309D04080046
:0E01D2008530831603138100A0308B000800D7
:1001E000B43083120313BD006220B430BD00A520DB
:1001F000881D0B29081E0B2945200D30FB00AF3050
:10020000FC00B630FD00FD0B0329FC0B0329FB0BA2
:10021000032900002229081E172988191729B4303C
:10022000BD006220B430BD00A52057202229081A45
:100230002229881D2229B430BD006220B430BD00BF
:06024000A5204C2008007F
:10024600831603130711831212150C309704080046
:10025600E63083120313A100A201C830A300A40153
:0E026600E130A500A601CD30AF00B0010800C8
:1002740083120313071C4029A701A8010718692941
:1002840000302806031D482900302706031D69296C
:100294000130A7000030A800B10A0319B20A0030E7
:1002A4002E06031D572901302D06031D5D29A90AB9
:1002B4000319AA0A692900302E06031D6329023096
:1002C4002D06031D69290130A902031CAA03051E7A
:1002D4006D29AB01AC01051A7E2900302C06031DE3
:1002E400752900302B06031D7E290130AB00003038
:0A02F400AC00B30A0319B40A0800B5
:0E02FE0083120313B101B201B301B401080071
:0C030C00831203139501171297120800CA
:100318009E208A110A128000840AB50A0319B60AB7
:08032800F003031D8C290800FD
:0C033000831203139B011D129D12080094
:10033C00E63083120313A100A201C830A300A4016C
:10034C00E130A500A601A701A801A901AA01AB01F2
:10035C00AC01AD01AE01CD30AF00B001B101B201C5
:10036C00B301B401C0308316880081308700063099
:10037C009F000516E920061386138312121492109F
:10038C00F93083169200862112149210F9308316DC
:10039C0092009821E630BD006220E630BD00A52019
:1003AC002321E12083160516071483128817831660
:1003BC008817081488140815871107128712071359
:1003CC00881508167F212B21F020A630FD00FD0B8F
:0803DC00ED290000EA29F129D6
:04400E00F22F000786
:00000001FF
