:020000004F2D82
:10000800FF00030E8301EE000A08ED008A01700864
:10001800A0000B1D11280A250B112008F0006D08FF
:0C0028008A006E0E8300FF0E7F0E0900A0
:1000340083120313FB01FA01F9018030F800F10C7B
:10004400F00C031C2E287408F90775080318750FA3
:10005400FA070318FB0A0310F01F36287408FA077E
:1000640075080318750FFB07FB0CFA0CF90CF80C58
:10007400031C21287B08F3007A08F2007908F100B8
:060084007808F0000800FE
:10008A00831603131208013EF000F1010318F10A66
:10009A003608F400F5011A200630F2007008F40060
:1000AA007108F500720803195F28F50CF40CF513B2
:1000BA00FF3E58280430F1007408F0007108031953
:1000CA006A28F00D7010FF3E642883120313303043
:1000DA007005F3007408F0007508F100F10CF00CDB
:1000EA00F113F10CF00CF113700895000F3097051D
:0600FA00730897040800E2
:10010000831603131208013EF000F1010318F10AEF
:100110003608F400F5011A200630F2007008F400E9
:100120007108F500720803199A28F50CF40CF51300
:10013000FF3E93280430F1007408F00071080319A1
:10014000A528F00D7010FF3E9F2883120313303056
:100150007005F3007408F0007508F100F10CF00C64
:10016000F113F10CF00CF11370089B000F309D059A
:0601700073089D04080065
:0C01760000000000000000000000080075
:10018200243083120313FD00FD0BC5280000080074
:100192003C30831203139F05C0309F006F08F000AC
:1001A200F00D7010F00D701070089F0483169F17E9
:1001B20083121F14C1209F149F1CE1280000DD2818
:1001C2001F101E08F100F00183161E08F004003013
:0401D200F10408002C
:1001D60083120313C101C201C10A0319C20ABB205B
:1001E600061FF62808298030173AF00080304206AC
:1001F6007002031D00294108703C03180729FF30CF
:10020600F000FF30F1000800EF28C101C201C10A69
:100216000319C20ABB20061B1329F001F1010800CD
:100226008030173AF000803042067002031D1D2907
:100236004108703C03182429FF30F000FF30F1001C
:0602460008000A2908006F
:10024C0083120313EB01EC01EB0A0319EC0ABB203C
:10025C00081F312943298030173AF00080306C0692
:10026C007002031D3B296B08703C03184229FF30B8
:10027C00F000FF30F10008002A29EB01EC01EB0A39
:10028C000319EC0ABB20081B4E29F001F1010800F0
:10029C008030173AF00080306C067002031D58292C
:1002AC006B08703C03185F29FF30F000FF30F10041
:0602BC00080045290800BE
:0E02C20083120313A101A201A301A4010800ED
:1002D000831203138815071708128716BE3083167A
:0E02E000B6004520BE308316B6008020080010
:1002EE00831203138815071708168712BE3083165C
:0E02FE00B6004520BE308316B60080200800F2
:10030C008312031388150812871207170330A700EE
:06031C000030A8000800FB
:0E032200831203136A088A006908820008002B
:10033000831203134708F0004808F100F00DF10D97
:10034000701070084507F30046080318013E710756
:10035000F4004908F0004A08F100F00DF10D7010AA
:10036000F00DF10D70107008F30771080318013ECD
:10037000F4070330F2004B08F0004C08F10072085B
:100380000319C729F00DF10D7010FF3EC029700848
:10039000F30771080318013EF4070430F2004D081A
:1003A000F0004E08F10072080319DB29F00DF10D81
:1003B0007010FF3ED4297008F30771080318013E3E
:1003C000F4070530F2004F08F0005008F100720801
:1003D0000319EF29F00DF10D7010FF3EE8297008A8
:1003E000F30771080318013EF4070630F2005108C4
:1003F000F0005208F10072080319032AF00DF10D04
:100400007010FF3EFC297008F30771080318013EC5
:10041000F4070730F2005308F0005408F1007208A6
:100420000319172AF00DF10D7010FF3E102A700805
:10043000F30771080318013EF4075508F100F001B5
:0E0440007308F00774080318013EF107080066
:10044E0083120313BB01BC01B301B401EF01C92038
:10045E00710883122C02031D362A70082B02031812
:10046E00442A31308316A00001308312D7000030A9
:10047E00D800B30A0319B40A4A2A30308316A000F2
:10048E008312D701D8010130EF00C9207108831201
:10049E002C02031D542A70082B020318622A3130D5
:1004AE008316A10001308312D9000030DA00B30A9E
:1004BE000319B40A682A30308316A1008312D901B9
:1004CE00DA010230EF00C920710883122C02031DDD
:1004DE00722A70082B020318802A31308316A2006C
:1004EE0001308312DB000030DC00B30A0319B40ABA
:1004FE00862A30308316A2008312DB01DC01033022
:10050E00EF00C920710883122C02031D902A700877
:10051E002B0203189E2A31308316A300013083125A
:10052E00DD000030DE00B30A0319B40AA42A30300D
:10053E008316A3008312DD01DE010430EF00C92013
:10054E00710883122C02031DAE2A70082B020318A9
:10055E00BC2A31308316A40001308312DF00003034
:10056E00E000B30A0319B40AC22A30308316A4007D
:10057E008312DF01E0010530EF00C92071088312FC
:10058E002A02031DCC2A700829020318DA2A3130F8
:10059E008316A50001308312C5000030C600BB0AC9
:1005AE000319BC0AE02A30308316A5008312C50158
:1005BE00C6010630EF00C920710883122A02031DFE
:1005CE00EA2A700829020318F82A31308316A60089
:1005DE0001308312C7000030C800BB0A0319BC0AE1
:1005EE00FE2A30308316A6008312C701C8010730D9
:1005FE00EF00C920710883122A02031D082B700810
:10060E0029020318162B31308316A70001308312EE
:10061E00C9000030CA00BB0A0319BC0A1C2B3030BB
:10062E008316A7008312C901CA010830EF00C92042
:10063E00710883122A02031D262B70082902031843
:10064E00342B31308316A80001308312CB000030DA
:10065E00CC00BB0A0319BC0A3A2B30308316A80013
:10066E008312CB01CC010930EF00C920710883122F
:10067E002A02031D442B700829020318522B313015
:10068E008316A90001308312CD000030CE00BB0AC4
:10069E000319BC0A582B30308316A9008312CD01E2
:1006AE00CE010A30EF00C920710883122A02031D01
:1006BE00622B700829020318702B31308316AA00A2
:1006CE0001308312CF000030D000BB0A0319BC0AE0
:1006DE00762B30308316AA008312CF01D0010B3057
:1006EE00EF00C920710883122A02031D802B7008A7
:1006FE00290203188E2B31308316AB000130831282
:10070E00D1000030D200BB0A0319BC0A942B303042
:10071E008316AB008312D101D2010C30EF00C92039
:10072E00710883122A02031D9E2B700829020318DA
:10073E00AC2B31308316AC0001308312D300003065
:10074E00D400BB0A0319BC0AB22B30308316AC009E
:10075E008312D301D4010D30EF00C920710883122A
:10076E002A02031DBC2B700829020318CA2B313034
:10077E008316AD0001308312D5000030D600BB0ABF
:10078E000319BC0AD02B30308316AD008312D5016D
:04079E00D601080078
:0E07A200831203138815071708168716080020
:1007B00083160313B201B301B401B501BE30B60014
:1007C0004520BE308316B60080208030F000803097
:1007D00024067002031DEE2B2308963C031CFC2B01
:1007E0008030F000803022067002031DF92B2108B2
:1007F000963C031CFC2BFD2B6121862180302406B6
:10080000F000803022067002031D082C210823020C
:10081000031C2B2C21082302F1002208031C013E9B
:100820002402F20080307206F00080307002031D56
:100830001B2C03307102031C2A2C682180302406F3
:10084000F000803022067002031D282C21082302AC
:1008500003181D2C4B2C23082102F1002408031C33
:10086000013E2202F20080307206F00080307002F9
:10087000031D3C2C03307102031C4B2C772180306C
:100880002206F000803024067002031D492C230844
:08089000210203183E2C0800B0
:100898008312031388150713081287162508831671
:0E08A800B600452025088316B6008020080003
:1008B6008312031386131330FD00FD0B602C00001A
:1008C600000086171330FD00FD0B672C00000000AA
:1008D600861326217008C3007108C4008230FC000C
:1008E600DD30FD00FD0B752CFC0B752C00000000A7
:1008F6004308F0004408F100F10CF00CF113711BF1
:04090600F1170800DD
:10090A008312031386131330FD00FD0B8A2C00009B
:10091A00000086171330FD00FD0B912C000000002B
:10092A008613EB207008C3007108C4000230FB0074
:10093A004530FC00A930FD00FD0BA12CFC0BA12CBD
:10094A00FB0BA12C000000004308F0004408F10052
:0C095A00F10CF00CF113711BF1170800F8
:1009660083120313881107170816871225088316A2
:0E097600B600452025088316B6008020080034
:100984008316031314139413071687153830831230
:0409940094000800C3
:10099800831603138710831212150C309D04080068
:1009A800831603130711831212150C3097040800DD
:1009B800D23083120313B900BA01BE30A500A601D4
:0E09C800CD30B700B801C330B500B60108004D
:0C09D600831203139B011D129D120800E8
:0C09E200831203139501171297120800EE
:0E09EE008530831603138100A0308B000800B3
:1009FC0091218A110A128000840AE90A0319EA0A71
:080A0C00F003031DFE2C08009D
:100A140083120313071C102DB101B2010718392DDD
:100A240000303206031D182D00303106031D392D08
:100A34000130B1000030B200A10A0319A20A00304B
:100A44002806031D272D01302706031D2D2DAF0A6F
:100A54000319B00A392D00302806031D332D023046
:100A64002706031D392D0130AF02031CB003051EF8
:100A74003D2DAD01AE01051A4E2D00302E06031D8D
:100A8400452D00302D06031D4E2D0130AD000030E4
:0A0A9400AE00A30A0319A40A08002B
:100A9E0083120313A101A201A301A401E130A50059
:100AAE00A601A701A8013C30A900AA01C830AB00DD
:100ABE00AC01AD01AE01AF01B001B101B201B301A4
:100ACE00B401E630B500B601FA30B700B801FF3018
:100ADE00B900BA01BB01BC01BD01BE01BF01C0011D
:100AEE00C030831688008130870006309F000516BF
:100AFE00F72406138613831212149210F9308316FC
:100B0E009200F12412149210F93083169200EB2405
:100B1E00B9308316B6004520B9308316B600802052
:100B2E00D424CC2483160516071483128817831633
:100B3E008817081488140815871107163230930089
:100B4E00C2246121DC248A1500208A11A63083126A
:0E0B5E000313FD00FD0BB12D0000AA2DB52DD7
:1010000083160313AE01AF01BE30B6008A1145202E
:101010008A15BE308316B6008A1180208A158A117F
:1010200027228A158A1198218A157008BF00710835
:10103000C0008A11D8238A1500304006031D2228DB
:1010400000303F06031D0F28831200304006031DA9
:101050002B2800303F06031DFD2A8A1127228A15FE
:101060008A1198218A157008BF007108C0008A1182
:1010700061218A158A1185248A158A115B248A15B3
:1010800083128030F000803024067002031D4A284D
:101090002308143C031C7728003083162F06031DF9
:1010A000532800302E06031D77288A1127228A151F
:1010B0008A1198218A157008BF007108C0008A1132
:1010C00085248A158A115B248A158A11B3248A150E
:1010D00000304006031D6E2800303F0603197628B5
:1010E00001308316AE000030AF0077284028831609
:1010F00000302F06031D7E2800302E06031D912888
:101100008A11D1238A153330FB00BB30FC00DF305D
:10111000FD00FD0B8928FC0B8928FB0B89280000AA
:1011200000008A1161218A1583128030F00080301E
:1011300024067002031D9E2823083C3C031CCB2878
:10114000003083162F06031DA72800302E06031D2E
:10115000CB288A1127228A158A1198218A157008AE
:10116000BF007108C0008A1185248A158A115B248A
:101170008A158A11D8238A1500304006031DC2281B
:1011800000303F060319CA2801308316AE00003034
:10119000AF00CB289428831600302F06031DD228D9
:1011A00000302E06031DE5288A11D1238A1533301D
:1011B000FB00BB30FC00DF30FD00FD0BDD28FC0B2D
:1011C000DD28FB0BDD28000000008A1161218A1553
:1011D00083128030F000803024067002031DF22854
:1011E00023080F3C031C1F29003083162F06031D04
:1011F000FB2800302E06031D1F298A1127228A157D
:101200008A1198218A157008BF007108C0008A11E0
:1012100085248A158A115B248A158A114C248A1523
:1012200000304006031D162900303F0603191E2911
:1012300001308316AE000030AF001F29E828831666
:1012400000302F06031D262900302E06031D3929E4
:101250008A11D1238A153330FB00BB30FC00DF300C
:10126000FD00FD0B3129FC0B3129FB0B312900005E
:1012700000008A1161218A1583128030F0008030CD
:1012800024067002031D46292308103C031C732901
:10129000003083162F06031D4F2900302E06031D34
:1012A00073298A1127228A158A1198218A157008B4
:1012B000BF007108C0008A1185248A158A115B2439
:1012C0008A158A11D8238A1500304006031D6A2921
:1012D00000303F060319722901308316AE0000303A
:1012E000AF0073293C29831600302F06031D7A298D
:1012F00000302E06031D8D298A11D1238A15333023
:10130000FB00BB30FC00DF30FD00FD0B8529FC0B32
:101310008529FB0B8529000000008A1161218A15AF
:1013200083128030F000803024067002031D9A2959
:1013300023080F3C031CC729003083162F06031D0A
:10134000A32900302E06031DC7298A1127228A15DA
:101350008A1198218A157008BF007108C0008A118F
:1013600085248A158A115B248A158A114C248A15D2
:1013700000304006031DBE2900303F060319C62970
:1013800001308316AE000030AF00C72990298316C4
:1013900000302F06031DCE2900302E06031DE12943
:1013A0008A11D1238A153330FB00BB30FC00DF30BB
:1013B000FD00FD0BD929FC0BD929FB0BD929000015
:1013C00000008A1161218A1583128030F00080307C
:1013D00024067002031DEE2923083C3C031C1B2A33
:1013E000003083162F06031DF72900302E06031D3B
:1013F0001B2A8A1127228A158A1198218A157008BA
:10140000BF007108C0008A1185248A158A115B24E7
:101410008A158A11D8238A1500304006031D122A26
:1014200000303F0603191A2A01308316AE0000303F
:10143000AF001B2AE429831600302F06031D222A41
:1014400000302E06031D352A8A11D1238A15333028
:10145000FB00BB30FC00DF30FD00FD0B2D2AFC0B38
:101460002D2AFB0B2D2A000000008A1161218A150C
:1014700083128030F000803024067002031D422A5F
:101480002308143C031C6F2A003083162F06031D0B
:101490004B2A00302E06031D6F2A8A1127228A1537
:1014A0008A1198218A157008BF007108C0008A113E
:1014B00085248A158A115B248A158A11B3248A151A
:1014C00000304006031D662A00303F0603196E2ACD
:1014D00001308316AE000030AF006F2A382A831621
:1014E00000302F06031D762A00302E06031D892AA0
:1014F0008A11D1238A153330FB00BB30FC00DF306A
:10150000FD00FD0B812AFC0B812AFB0B812A0000C8
:1015100000008A1161218A1583128030F00080302A
:1015200024067002031D962A2308103C031CC32ABC
:10153000003083162F06031D9F2A00302E06031D40
:10154000C32A8A1127228A158A1198218A157008C0
:10155000BF007108C0008A1185248A158A115B2496
:101560008A158A11D8238A1500304006031DBA2A2D
:1015700000303F060319C22A01308316AE00003046
:10158000AF00C32A8C2A831600302F06031DCA2AF7
:1015900000302E06031DDD2A8A11D1238A1533302F
:1015A000FB00BB30FC00DF30FD00FD0BD52AFC0B3F
:1015B000D52AFB0BD52A00000000003083162F0629
:1015C000031DE42A01302E06031DFC2A8A11D123B3
:1015D0008A157F30FB00D430FC003130FD00FD0B5C
:1015E000EF2AFC0BEF2AFB0BEF2A00000000013072
:0C15F000BD000030BE00FD2A24280800C9
:04400E00F22F000786
:00000001FF
