:040000008A150D2D23
:0E000600F201F101F001F801F30100300800F1
:100014007B15FB1F14280130F300F201F101F001FC
:08002400FA0DF20CFF30080098
:08002C00FA1FF2130030080076
:10003400FB14FB1F2428FF30F300F200F100F00052
:08004400FA0DF20CFF30080078
:10004C00A0017208031D3B287108F2007008F10032
:10005C00F001A0157208031D3B287108F200F10194
:10006C00A01120167208031949282008F302031D59
:10007C00031C4D280310F21B5128F00DF10DF20D4D
:10008C00F30B41284D280130FC000320542802308A
:0E009C00FC000A2054280430FC001620080046
:1000AA007C188B28FC185C287C19AA285528A001E2
:1000BA007208031D7C287108F2007008F1007808A4
:1000CA00F000F801A0157208031D7C287108F200DF
:1000DA007008F100F001A01120167208031D7C2897
:1000EA007108F200F101A015720803199E28200870
:1000FA00F302031D031CA2280310F21B8B28F80D20
:10010A00F00DF10DF20DF30B8228A2287B1B701C57
:10011A00A628F81FA628F00A0319F10A0319F20AF9
:10012A00031DA628F20CF10CF00CF30A0319AA28F5
:10013A00A6280130FC000320AD280230FC000A206A
:10014A00AD280430FC001620AD280830FC001A2027
:04015A000000080099
:0E015E008312031328088A0027088200080075
:10016C008312031372087606A000F801F9017308D4
:10017C007702031CD9287708FD007308F7007D0867
:10018C00F3007608FD007208F6007D08F200750891
:10019C00FD007108F5007D08F1007408FD00700881
:1001AC00F4007D08F0007708031952297208FA0050
:1001BC00F217F61777087302F70003190C290830A9
:1001CC007702031C0229F7007408F9007508F40083
:1001DC007608F500F60108307702031C0229F700B7
:1001EC007408F9007508F400F50108307702031C57
:1001FC0002297A08F2005229770803190C290310F6
:10020C00F60CF50CF40CF90CF70B0529A01F1929A9
:10021C00F909F409F509F609F90A0319F40A03199D
:10022C00F50A0319F60A7908F80774080318740F0D
:10023C00F00775080318750FF10776080318760F89
:10024C00F207A01B3229031C4229F20CF10CF00C12
:10025C00F80CF30F42294E2903184629F809F00926
:10026C00F109F209F80A0319F00A0319F10A031942
:10027C00F20A8030FA064A290130FC005520542934
:10028C000230FC00552054290430FC00262054294F
:10029C000830FC001A2054290030FC000000080033
:1002AC0083120313FB017308031D77080319AD298F
:1002BC0072087606FA007708F3077E30031C6A2969
:1002CC00F3020318B0296D29F302031CB329720839
:1002DC00F8007108FC007008FD00F817F617031001
:1002EC00F201F101F0011830A0007D1C872974087F
:1002FC00F00775080318750FF10776080318760FC9
:10030C00F207F20CF10CF00CF80CFC0CFD0C0310C9
:10031C00A00B7B29F21B9729F80DF00DF10DF20DB6
:10032C00F3037B1B701CA929F81FA929F00A0319D8
:10033C00F10A0319F20A031DA929F20CF10CF00CB5
:10034C00F30A0319B029FA1FF2130030B529013052
:10035C000320B52902301A20B52904300A200000E8
:02036C00080087
:10036E0083120313FA017308031D7A147708031D11
:10037E00FA147A080319032A033A0319CE297A18B4
:10038E00CB29F61F012AFF29F21FFF29012A720825
:10039E008039FA00F21376088039F6137A060319BB
:1003AE00DC297A080319FF29012A77087302031939
:1003BE00E329031CF729FB29760872020319EA299F
:1003CE00031CF729FB29750871020319F129031C77
:1003DE00F729FB29740870020319032A0318FB2955
:1003EE00FA080319012AFF29FA080319FF29012A1D
:1003FE000314080003100800031403150800080076
:06040E00FB15FF300800A1
:10041400083083120313FC002330FD00FD0B102A67
:06042400FC0B102A080089
:10042A00831203135C08F0005D08F100F00DF10D72
:10043A007010F00DF10D70105A08F0075B080318E0
:10044A00013EF1077008A7007108A800AF208A11C1
:10045A000A12DE00A70A0319A80AAF208A110A1293
:10046A00DF00A70A0319A80AAF208A110A12E000BE
:10047A00A70A0319A80AAF208A110A12E1005C0828
:10048A005D040319942A5608F0005708F100580829
:10049A00F2005908F3005E08F4005F08F5006008EE
:1004AA00F6006108F70056210130DC02031CDD0367
:1004BA005C08F4005D08F500F40DF50D7410F40DF8
:1004CA00F50D74105A08F4075B080318013EF50786
:1004DA007408A7007508A800AF208A110A12F40050
:1004EA00A70A0319A80AAF208A110A12F500A70A57
:1004FA000319A80AAF208A110A12F600A70A0319DB
:10050A00A80AAF208A110A12F700B6207008DE0086
:10051A007108DF007208E0007308E100442A5E08EF
:10052A00F0005F08F1006008F2006108F3000800BB
:0C053A00831203138030F606B620080080
:0405460000000800A9
:10054A00831203137408003A031DC02A7508003A7F
:10055A00031DC02A7608003A031DC02A7708003A0C
:10056A00031DC02AFF30F000FF30F1007F30F20097
:10057A00FF30F300080083120313770803194F2B87
:10058A0073080319522B720876068039FA00F2179B
:10059A00F617A0017208F8007108FC007008FD0047
:1005AA007408FD027508031C750FFC027608031C0B
:1005BA00760FF802F801FC01FD01031CEB2A031077
:1005CA00F20CF10CF00CF80C0130A0007708F302E1
:1005DA00031CF52A7E302007F3070318552BFA2A45
:1005EA007E302007F307031C582B1830FA07FD0D3D
:1005FA00FC0DF80DF00DF10DF20DA00D7408F002CE
:10060A007508031C750FF1027608031C760FF202B7
:10061A00760DA004201C132B7D141E2B7408F007E2
:10062A0075080318750FF10776080318760AF2079A
:10063A007D10FA031F307A05031DFC2A7B1B7D1CE3
:10064A00452B0310F00DF10DF20DA00D7408F00208
:10065A007508031C750FF1027608031C760FF20267
:10066A00760D20040139FD070318FC0A0319F80A5C
:10067A00031D452BF80CFC0CFD0CF30A0319552B32
:10068A00FA1FF8137808F2007C08F1007D08F000E0
:10069A0000305A2B013007225A2B023003205A2BE2
:0E06AA0004301A205A2B08300A2000000800E5
:1006B8008312031373087706031D6F2B72087606DF
:1006C800031D6F2B71087506031D6F2B70087406C8
:0C06D800031903150800031108000800B6
:1006E40083120313F401F501F601F7015608F00033
:1006F4005708F1005808F2005908F300B7210130F7
:1007040003180030F00070080319952B00305606CA
:10071400F00000305706F10080305806F200003037
:100724005906F30008005608F0005708F10058086D
:08073400F2005908F30008006F
:10073C00103083120313FD00FD0BA22B00000800E8
:10074C00831203132230FC00F801F901FA01FB01BA
:10075C00FC030319DC2B0310FB0CFA0CF90CF80C42
:10076C00F30CF20CF10CF00C031CAE2BFC03031974
:10077C00CE2B7408F80775080318750FF90776085F
:10078C000318760FFA0777080318770FFB07B22BBD
:10079C007408F80775080318750FF907760803181D
:0E07AC00760FFA0777080318770FFB0708008F
:1007BA00831603131419EB2B1F301105F10071086E
:1007CA00003A031DEB2B0130F0000800F00108008D
:1007DA00831203138C118316911583128C19F62B2D
:1007EA00F22B1308F1004908003A031DFF2B831668
:1007FA009116012C8316911283128C1183161116ED
:0E080A0083128C19092C052C7108F0000800CF
:10081800831203138C11490893008316141D152C99
:10082800112C83128C19192C152C8316111B1E2CB4
:0C083800F001080011150230F00008006B
:10084400831203134908D6004A08D7004B08D8007E
:100854004C08D90072237008CE007108CF007208CA
:10086400D0007308D100F401F501F601F7015C230F
:100874000130031D0030F00070080319462CF0010C
:10088400F101F201F30108004E08F4004F08F500ED
:100894005008F6005108F7000030F0000030F10075
:1008A4000030F2007F30F300B7210130031800302C
:1008B400F0007008CD0070080319792C4E08F4007C
:1008C4004F08F5005008F6005108F7000030F0001A
:1008D4000030F1000030F2007F30F300A5227008F0
:1008E400CE007108CF007208D0007308D1004E0802
:1008F400F0004F08F1005008F2005108F3004E08D0
:10090400F4004F08F5005008F6005108F70056218E
:100914007008D2007108D3007208D4007308D5009F
:100924007008D6007108D7007208D8007308D9007F
:10093400D530DA000730DB000530DC000030DD00A4
:1009440015224E08F4004F08F5005008F60051082F
:10095400F70056217008CE007108CF007208D0004D
:100964007308D1005208D6005308D7005408D800A1
:100974005508D9004B30DA000D30DB000430DC00C0
:100984000030DD0015227008F4007108F5007208CB
:10099400F6007308F7004E08F0004F08F100500805
:1009A400F2005108F300A5227008CE007108CF00B0
:1009B4007208D0007308D1004D080319FA2C4E08B0
:1009C400F4004F08F5005008F6005108F700DB303A
:1009D400F0000F30F1004930F2007F30F3009D2227
:1009E4007008CE007108CF007208D0007308D100DF
:1009F400F401F501F601F7014908F0004A08F10095
:100A04004B08F2004C08F300B72101300318003002
:100A1400F000700803191B2D00304E06F000003062
:100A24004F06F10080305006F20000305106F3000A
:100A3400232D4E08F0004F08F1005008F200510831
:100A4400F3007008CE007108CF007208D00073085C
:040A5400D1000800C5
:100A58008030831203134A06F00080307002031DB1
:100A6800372D7F304902031C722D4A08CF004908F0
:100A7800CE00CD01D0014B08CD074C080318013E2C
:100A8800CE070030CE1BFF30CF00D0000130CD02A2
:100A9800031CCE02031CCF02031CD0024D09F00038
:100AA8004E09F1004F09F2005009F3007008CD001B
:100AB8007108CE007208CF007308D000FF30F40030
:100AC800FF30F500F600F700A6237008CD00710886
:100AD800CE007208CF007308D00008004A08CF0083
:100AE8004908CE00CD01D0014B08CD074C080318AA
:100AF800013ECE070030CE1BFF30CF00D0004D089E
:080B0800F0004E08F1000800A6
:0E0B1000831603139114911C8E2D8B2D08005B
:100B1E0083120313C91B952D0612962D0616491B1B
:100B2E009A2D86129B2D8616C91A9F2D0613A02D5F
:100B3E000617491AA42D8613A52D86173418A92D2C
:100B4E000615AA2D06118615A3228611C919B12DD7
:100B5E000612B22D06164919B62D8612B72D861617
:100B6E00C918BB2D0613BC2D06174918C02D8613A8
:100B7E00C12D86173418C52D0615C62D06118615DE
:100B8E00A3228611341CCD2D0A22CE2D9E230800C1
:100B9E007B14FB1FDA2DF201FA1FFF30F200F10079
:0A0BAE00F000FA0DF20CFF30080011
:080BB800831603131115080058
:100BC000831203137008F8007108F0007208F10036
:100BD0007308F200F301FB01FC019E30F300FA01FF
:100BE000F21FFE2DF809F009F109F209F80A0319BC
:100BF000F00A0319F10A0319F20AFA170230FC008D
:040C00005520080073
:100C040083120313C901CA014A08123C031D0C2EA6
:100C140049088E3C031C182EDD2370080319132E7B
:100C2400182E8312C90A0319CA0A062E8312123017
:100C34004A02031D1F2E8F304902031C242E7B30D1
:100C4400F000080083161114111C292E262EF00121
:020C5400080096
:100C5600831203137008F8007108F000F101F20125
:100C6600F301FB01FC019630F300FA01F01F412E5F
:100C7600F809F009F80A0319F00AFA177008F100E2
:0C0C86007808F000F801F20126200800B8
:100C920083120313FB0173080319862E7208FA00EC
:100CA200F2178E30F302F31F892EF309F30A08308C
:100CB2007302031C6C2EF300F10D7208F100F201B5
:100CC20008307302031C6C2EF300F10DF10173085E
:100CD200031D0310742E73080319742E0310F20CF3
:100CE200F10CF30B6F2E7B1B711C7E2E031C7E2ED0
:100CF200F10A0319F20AF21B952EFA1F982EF20935
:100D0200F109F10A0319F20A982EF201F101982E63
:100D12007B14FB1F9B2EF201FA1F9B2EFF30F20069
:100D2200F100FA0DF20C9B2E0130FC009D2E0030DA
:100D3200FC009D2EFF30FC00FC080319A12ECF25DC
:0A0D42007108F0007208F1000800CB
:100D4C0083120313F801F9011030FC00710DF80D3A
:100D5C00F90D7408F8027508031C750FF9020318D5
:100D6C00BE2E7408F80775080318750FF9070310E1
:0A0D7C00F00DF10DFC0BAC2E080089
:100D86008312031334104508C9008F253414080054
:100D96008A1500208A112108B43CF0002208031CA1
:100DA600013EF101F1022B262308F4002408F50088
:100DB6002508F6002608F700B62049267008A9007F
:100DC6007108AA0080307106F20080307202031D9D
:100DD600EE2E003070020318F72E6830A907013096
:100DE6000318013EAA07092F8030013AF00080302F
:100DF6002A067002031D012F2908683C0318092FD3
:100E06006830A902031CAA030130AA0280302A0610
:100E1600F00080307002031D122FAA302902031839
:100E2600222F8030F00080302A067002031D1D2F0D
:100E36002908003C0318222F061086143E2F803006
:100E4600F00080302A067002031D2B2F2908BE3CB5
:100E560003183C2F80302A06F0008030013A7002D9
:100E6600031D372F6830290203183C2F06148610FD
:080E76003E2F0614861408004B
:100E7E00512F803083120313C000642FC030C00086
:100E8E00642F9430C000642FD430C000642F8030A3
:100E9E00C000642F831203134008013A0319402F38
:100EAE004008023A0319452F4008033A0319482F08
:100EBE004008043A03194B2F4E2F4103F00040080F
:100ECE00F0077008C0007008C9008F253410C301E8
:100EDE00430842078400000803197D2F4308420788
:100EEE0084000008C500C326C30A6F2F34140800FF
:100EFE0083120313C3010530430203188D2F4308D9
:100F0E004207840020308000C30A822F4308420724
:100F1E0084008001C30343084207C4000A30F40072
:100F2E00F5014008F0004108F100A6267808F0000F
:100F3E007908F1003030F007440884007008800012
:100F4E000A30F400F5014008F0004108F100A62631
:100F5E007008C0007108C10000307106031DB92F62
:100F6E0000307006031DBC2FBE2FC303922F080046
:100F7E008316031314139413071687153830831230
:040F8E0094000800C3
:100F9200AF208A110A128000840AA70A0319A80A3C
:080FA200F003031DC92F080034
:101000008A1102268A153C3083120313C9008A1103
:101010000C248A1502308312C9008A110C248A1507
:101020008312C9018A110C248A158A11DC258A15BC
:101030008A1102268A15143083120313FC007930BA
:10104000FD00FD0B2128FC0B2128000000008A1167
:10105000DD238A157008031949283C308312C90022
:101060008A110C248A1503308312C9008A110C24BA
:101070008A158A1188258A153D308312C9008A1184
:101080000C248A158312C9018A11ED238A15700870
:10109000BC008A11DC258A158A1102268A151430B3
:1010A00083120313FC007930FD00FD0B5528FC0B67
:1010B0005528000000008A11DD238A1570080319E5
:1010C0007D283C308312C9008A110C248A15043013
:1010D0008312C9008A110C248A158A1188258A1561
:1010E0003D308312C9008A110C248A158312C9016C
:1010F0008A11ED238A157008BD008A11DC258A1536
:101100008A1102268A15143083120313FC007930E9
:10111000FD00FD0B8928FC0B8928000000008A11C6
:10112000DD238A1570080319B1283C308312C900E9
:101130008A110C248A1505308312C9008A110C24E7
:101140008A158A1188258A153D308312C9008A11B3
:101150000C248A158312C9018A11ED238A1570089F
:10116000BF008A11DC258A158A1102268A151430DF
:1011700083120313FC007930FD00FD0BBD28FC0B2E
:10118000BD28000000008A11DD238A1570080319AC
:10119000E5283C308312C9008A110C248A150630D8
:1011A0008312C9008A110C248A158A1188258A1590
:1011B0003D308312C9008A110C248A158312C9019B
:1011C0008A11ED238A157008BE008A11DC258A1564
:1011D0008A1102268A15143083120313FC00793019
:1011E000FD00FD0BF128FC0BF128000000008A1126
:1011F000DD238A157008031919293C308312C900B0
:101200008A110C248A1507308312C9008A110C2414
:101210008A158A1188258A153D308312C9008A11E2
:101220000C248A158312C9018A11ED238A157008CE
:10123000BB008A11DC258A158A1102268A15143012
:1012400083120313FC007930FD00FD0B2529FC0BF4
:101250002529000000008A11DD238A157008031972
:101260004D293C308312C9008A110C248A1508309C
:101270008312C9008A110C248A158A1188258A15BF
:101280003D308312C9008A110C248A158312C901CA
:101290008A11ED238A157008AF008A11DC258A15A2
:1012A00083123C08C900CA013D08CB00CC018A1159
:1012B0002C258A157008AB007108AC000030AC1BFF
:1012C000FF30AD00AE003B08C900CA012F08CB00BB
:1012D000CC018A112C258A157008B0007108B10064
:1012E0000030B11BFF30B200B30080302E06F0009A
:1012F00080307002031D862900302D02031D8629CF
:1013000000302C02031D862900302B02031CF32918
:1013100080303306F00080307002031D99290030C0
:101320003202031D992900303102031D9929003032
:101330003002031CF3293008F0003108F1003208B4
:10134000F2003308F3008A11E0258A157008C50001
:101350007108C6007208C7007308C8002B08F000A7
:101360002C08F1002D08F2002E08F3008A11E02568
:101370008A157008F4007108F5007208F600730809
:10138000F7004508F0004608F1004708F200480859
:10139000F3008A11A5228A157008C9007108CA00D5
:1013A0007208CB007308CC008A1122248A157008B9
:1013B000A3007108A4007208A5007308A600E0301D
:1013C000F4002E30F5006530F6008430F7008A1105
:1013D00056218A157008A3007108A4007208A500A0
:1013E0007308A600CB2B80302E06F00080307002F0
:1013F000031D042A00302D02031D042A00302C0294
:10140000031D042A00302B020318972A803033066C
:10141000F00080307002031D172A00303202031DD5
:10142000172A00303102031D172A00303002031C36
:10143000972A3008F0003108F1003208F200330832
:10144000F3008A11E0258A157008C5007108C600EE
:101450007208C7007308C8002B08F0002C08F100C0
:101460002D08F2002E08F3008A11E0258A150030BD
:10147000F4000030F5008030F6007F30F7008A116C
:1014800056218A157008F4007108F5007208F600FC
:101490007308F7004508F0004608F1004708F2001D
:1014A0004808F3008A11A5228A157008C90071083E
:1014B000CA007208CB007308CC008A1122248A1556
:1014C0007008A3007108A4007208A5007308A600A4
:1014D000E030F4002E30F5006530F6008430F7007F
:1014E0008A1156218A157008A3007108A400720899
:1014F000A5007308A6007008F4007108F5007208D2
:10150000F6007308F7000030F0000030F1003430CE
:10151000F2008630F3008A119D228A157008A3001C
:101520007108A4007208A5007308A600CB2B8030B8
:101530002E06F00080307002031DA82A00302D0214
:10154000031DA82A00302C02031DA82A00302B02FC
:101550000318282B80303306F00080307002031D02
:10156000BB2A00303202031DBB2A00303102031DAA
:10157000BB2A003030020318282B3008F000310855
:10158000F1003208F2003308F3008A11E0258A15D1
:101590007008C5007108C6007208C7007308C8004B
:1015A0002B08F0002C08F1002D08F2002E08F300A3
:1015B0008A11E0258A157008F4007108F500720898
:1015C000F6007308F7004508F0004608F1004708E8
:1015D000F2004808F3008A11A5228A157008C90094
:1015E0007108CA007208CB007308CC008A1122244B
:1015F0008A157008A3007108A4007208A50073087A
:10160000A600E030F4002E30F5006530F60084309E
:10161000F7008A1156218A157008A3007108A400EA
:101620007208A5007308A6000030F4000030F50031
:101630003430F6008630F7008A11B6208A1570081B
:10164000A3007108A4007208A5007308A600CB2BA4
:1016500080302E06F00080307002031D392B0030E0
:101660002D02031D392B00302C02031D392B0030B5
:101670002B02031CCB2B80303306F000803070022D
:10168000031D4C2B00303202031D4C2B0030310265
:10169000031D4C2B003030020318CB2B3008F00018
:1016A0003108F1003208F2003308F3008A11E02516
:1016B0008A150030F4000030F5008030F6007F30ED
:1016C000F7008A1156218A157008C5007108C600F6
:1016D0007208C7007308C8002B08F0002C08F1003E
:1016E0002D08F2002E08F3008A11E0258A157008F3
:1016F000F4007108F5007208F6007308F700450859
:10170000F0004608F1004708F2004808F3008A118B
:10171000A5228A157008C9007108CA007208CB009A
:101720007308CC008A1122248A157008A30071085E
:10173000A4007208A5007308A600E030F4002E3063
:10174000F5006530F6008430F7008A1156218A15BD
:101750007008A3007108A4007208A5007308A60011
:101760007008F4007108F5007208F6007308F700BD
:101770000030F0000030F1003430F2008730F30028
:101780008A119D228A157008A3007108A4007208AE
:10179000A5007308A60080302E06F000803070028D
:1017A000031DDC2B00302D02031DDC2B00302C022E
:1017B000031DDC2B00302B02031CDF2BF82B2B0826
:1017C000F0002C08F1002D08F2002E08F300FF3085
:1017D000F400FF30F500F600F7008A11A6238A1501
:1017E0007008AB007108AC007208AD007308AE0061
:1017F00080303306F00080307002031D092C003069
:101800003202031D092C00303102031D092C003067
:101810003002031C0C2C252C3008F0003108F1009C
:101820003208F2003308F300FF30F400FF30F50017
:10183000F600F7008A11A6238A157008B000710817
:10184000B1007208B2007308B3008230FC00DD30D2
:10185000FD00FD0B292CFC0B292C000000000800CA
:1018600083120313FB01FC01FA01730803196F2CA7
:10187000F2178E30F302F31B402C0319402C722C0C
:10188000F309F30A08307302031C552CF300F10D21
:101890007208F100F20108307302031C552CF10D9F
:1018A000F1017308031D03105D2C730803195D2CEF
:1018B0000310F20CF10CF30B582C7B1B711C672CE2
:1018C000031C672CF10A0319F20AF21B7E2CFA1F83
:1018D000812CF209F109F10A0319F20A812CF201B3
:1018E000F101812C7B14FB1F842CF201FA1F842C44
:1018F000FF30F200F100FA0DF20C842C0130FC00F4
:10190000862C0030FC00862CFF30FC00FC080319FC
:101910008C2C8A11CF258A157108F0007208F1000D
:021920000800BD
:1019220083160313861106118613061386120612F6
:1019320083128611061106128612061386138A1165
:101942000A228A158A110A228A158A110A228A15FE
:101952000617861786158A11A3228A1586118A11FF
:101962000A228A1586158A11A3228A1586118A11DE
:101972000A228A1586158A11A3228A1586118A11CE
:101982000A228A15861386158A11A3228A158611C0
:101992008A110A228A1586158A11A3228A158611AE
:1019A2000613061686158A11A3228A1586118A1134
:1019B2000A228A150612861786158A11A3228A150B
:1019C2008611861386158A11A3228A1586118A1119
:1019D2000A228A1586158A11A3228A15861186176C
:1019E20086158A11A3228A1586118A110A228A155E
:1019F200861386158A11A3228A1586110616861663
:101A02000617861786158A11A3228A1586118A114E
:081A12000A228A1534140800B1
:101A1A003C3083120313A100A201A301A401A50172
:101A2A00A60191240130C9008A118F258A150C302C
:101A3A00C9008A118F258A150A30831693008A11E4
:101A4A00BF278A1583160610861000202308F00087
:101A5A002408F1002508F2002608F3003024700853
:101A6A00C0007108C1003530C2008A117F278A156B
:101A7A000130C0000130C1003530C2008A113F2751
:0C1A8A008A158A11CB268A152A2D4A2DB8
:100FAA0006343C34043484347D349F346A348434C3
:100FBA005C3490340134843460344D343B348134AD
:100FCA005134EC3447347C34DE348D349F347634F7
:101A960006343C3404348434C03459340B3485342D
:101AA6007434043444348434F9349B344F348234EB
:081AB6000034003400347F34D9
:02400E004A2F37
:00000001FF
